{
  "_format": "hh-sol-artifact-1",
  "contractName": "Eternal",
  "sourceName": "contracts/Eternal.sol",
  "abi": [
    {
      "inputs": [
        {
          "internalType": "uint256",
          "name": "initialSupply",
          "type": "uint256"
        }
      ],
      "stateMutability": "nonpayable",
      "type": "constructor"
    },
    {
      "anonymous": false,
      "inputs": [
        {
          "indexed": true,
          "internalType": "address",
          "name": "owner",
          "type": "address"
        },
        {
          "indexed": true,
          "internalType": "address",
          "name": "spender",
          "type": "address"
        },
        {
          "indexed": false,
          "internalType": "uint256",
          "name": "value",
          "type": "uint256"
        }
      ],
      "name": "Approval",
      "type": "event"
    },
    {
      "anonymous": false,
      "inputs": [
        {
          "indexed": true,
          "internalType": "address",
          "name": "previousOwner",
          "type": "address"
        },
        {
          "indexed": true,
          "internalType": "address",
          "name": "newOwner",
          "type": "address"
        }
      ],
      "name": "OwnershipTransferred",
      "type": "event"
    },
    {
      "anonymous": false,
      "inputs": [
        {
          "indexed": true,
          "internalType": "address",
          "name": "from",
          "type": "address"
        },
        {
          "indexed": true,
          "internalType": "address",
          "name": "to",
          "type": "address"
        },
        {
          "indexed": false,
          "internalType": "uint256",
          "name": "value",
          "type": "uint256"
        }
      ],
      "name": "Transfer",
      "type": "event"
    },
    {
      "inputs": [
        {
          "internalType": "address",
          "name": "owner",
          "type": "address"
        },
        {
          "internalType": "address",
          "name": "spender",
          "type": "address"
        }
      ],
      "name": "allowance",
      "outputs": [
        {
          "internalType": "uint256",
          "name": "",
          "type": "uint256"
        }
      ],
      "stateMutability": "view",
      "type": "function"
    },
    {
      "inputs": [
        {
          "internalType": "address",
          "name": "spender",
          "type": "address"
        },
        {
          "internalType": "uint256",
          "name": "amount",
          "type": "uint256"
        }
      ],
      "name": "approve",
      "outputs": [
        {
          "internalType": "bool",
          "name": "",
          "type": "bool"
        }
      ],
      "stateMutability": "nonpayable",
      "type": "function"
    },
    {
      "inputs": [
        {
          "internalType": "address",
          "name": "account",
          "type": "address"
        }
      ],
      "name": "balanceOf",
      "outputs": [
        {
          "internalType": "uint256",
          "name": "",
          "type": "uint256"
        }
      ],
      "stateMutability": "view",
      "type": "function"
    },
    {
      "inputs": [],
      "name": "claimFree1k",
      "outputs": [],
      "stateMutability": "payable",
      "type": "function"
    },
    {
      "inputs": [],
      "name": "decimals",
      "outputs": [
        {
          "internalType": "uint8",
          "name": "",
          "type": "uint8"
        }
      ],
      "stateMutability": "view",
      "type": "function"
    },
    {
      "inputs": [
        {
          "internalType": "address",
          "name": "spender",
          "type": "address"
        },
        {
          "internalType": "uint256",
          "name": "subtractedValue",
          "type": "uint256"
        }
      ],
      "name": "decreaseAllowance",
      "outputs": [
        {
          "internalType": "bool",
          "name": "",
          "type": "bool"
        }
      ],
      "stateMutability": "nonpayable",
      "type": "function"
    },
    {
      "inputs": [
        {
          "internalType": "address",
          "name": "spender",
          "type": "address"
        },
        {
          "internalType": "uint256",
          "name": "addedValue",
          "type": "uint256"
        }
      ],
      "name": "increaseAllowance",
      "outputs": [
        {
          "internalType": "bool",
          "name": "",
          "type": "bool"
        }
      ],
      "stateMutability": "nonpayable",
      "type": "function"
    },
    {
      "inputs": [
        {
          "internalType": "uint256",
          "name": "amount",
          "type": "uint256"
        }
      ],
      "name": "mint",
      "outputs": [],
      "stateMutability": "payable",
      "type": "function"
    },
    {
      "inputs": [],
      "name": "name",
      "outputs": [
        {
          "internalType": "string",
          "name": "",
          "type": "string"
        }
      ],
      "stateMutability": "view",
      "type": "function"
    },
    {
      "inputs": [],
      "name": "owner",
      "outputs": [
        {
          "internalType": "address",
          "name": "",
          "type": "address"
        }
      ],
      "stateMutability": "view",
      "type": "function"
    },
    {
      "inputs": [],
      "name": "renounceOwnership",
      "outputs": [],
      "stateMutability": "nonpayable",
      "type": "function"
    },
    {
      "inputs": [],
      "name": "symbol",
      "outputs": [
        {
          "internalType": "string",
          "name": "",
          "type": "string"
        }
      ],
      "stateMutability": "view",
      "type": "function"
    },
    {
      "inputs": [],
      "name": "totalSupply",
      "outputs": [
        {
          "internalType": "uint256",
          "name": "",
          "type": "uint256"
        }
      ],
      "stateMutability": "view",
      "type": "function"
    },
    {
      "inputs": [
        {
          "internalType": "address",
          "name": "to",
          "type": "address"
        },
        {
          "internalType": "uint256",
          "name": "amount",
          "type": "uint256"
        }
      ],
      "name": "transfer",
      "outputs": [
        {
          "internalType": "bool",
          "name": "",
          "type": "bool"
        }
      ],
      "stateMutability": "nonpayable",
      "type": "function"
    },
    {
      "inputs": [
        {
          "internalType": "address",
          "name": "from",
          "type": "address"
        },
        {
          "internalType": "address",
          "name": "to",
          "type": "address"
        },
        {
          "internalType": "uint256",
          "name": "amount",
          "type": "uint256"
        }
      ],
      "name": "transferFrom",
      "outputs": [
        {
          "internalType": "bool",
          "name": "",
          "type": "bool"
        }
      ],
      "stateMutability": "nonpayable",
      "type": "function"
    },
    {
      "inputs": [
        {
          "internalType": "address",
          "name": "newOwner",
          "type": "address"
        }
      ],
      "name": "transferOwnership",
      "outputs": [],
      "stateMutability": "nonpayable",
      "type": "function"
    },
    {
      "inputs": [
        {
          "internalType": "address",
          "name": "",
          "type": "address"
        }
      ],
      "name": "walletsClaimed1k",
      "outputs": [
        {
          "internalType": "bool",
          "name": "",
          "type": "bool"
        }
      ],
      "stateMutability": "view",
      "type": "function"
    }
  ],
  "bytecode": "0x60806040526509184e72a0006006556a0422ca8b0a00a4250000006007553480156200002a57600080fd5b506040516200236638038062002366833981810160405281019062000050919062000441565b6040518060400160405280600781526020017f457465726e616c000000000000000000000000000000000000000000000000008152506040518060400160405280600381526020017f45545200000000000000000000000000000000000000000000000000000000008152508160039080519060200190620000d49291906200037a565b508060049080519060200190620000ed9291906200037a565b50505062000110620001046200012960201b60201c565b6200013160201b60201c565b620001223382620001f760201b60201c565b5062000633565b600033905090565b6000600560009054906101000a900473ffffffffffffffffffffffffffffffffffffffff16905081600560006101000a81548173ffffffffffffffffffffffffffffffffffffffff021916908373ffffffffffffffffffffffffffffffffffffffff1602179055508173ffffffffffffffffffffffffffffffffffffffff168173ffffffffffffffffffffffffffffffffffffffff167f8be0079c531659141344cd1fd0a4f28419497f9722a3daafe3b4186f6b6457e060405160405180910390a35050565b600073ffffffffffffffffffffffffffffffffffffffff168273ffffffffffffffffffffffffffffffffffffffff1614156200026a576040517f08c379a00000000000000000000000000000000000000000000000000000000081526004016200026190620004a5565b60405180910390fd5b6200027e600083836200037060201b60201c565b8060026000828254620002929190620004f5565b92505081905550806000808473ffffffffffffffffffffffffffffffffffffffff1673ffffffffffffffffffffffffffffffffffffffff1681526020019081526020016000206000828254620002e99190620004f5565b925050819055508173ffffffffffffffffffffffffffffffffffffffff16600073ffffffffffffffffffffffffffffffffffffffff167fddf252ad1be2c89b69c2b068fc378daa952ba7f163c4a11628f55a4df523b3ef83604051620003509190620004c7565b60405180910390a36200036c600083836200037560201b60201c565b5050565b505050565b505050565b82805462000388906200055c565b90600052602060002090601f016020900481019282620003ac5760008555620003f8565b82601f10620003c757805160ff1916838001178555620003f8565b82800160010185558215620003f8579182015b82811115620003f7578251825591602001919060010190620003da565b5b5090506200040791906200040b565b5090565b5b80821115620004265760008160009055506001016200040c565b5090565b6000815190506200043b8162000619565b92915050565b6000602082840312156200045457600080fd5b600062000464848285016200042a565b91505092915050565b60006200047c601f83620004e4565b91506200048982620005f0565b602082019050919050565b6200049f8162000552565b82525050565b60006020820190508181036000830152620004c0816200046d565b9050919050565b6000602082019050620004de600083018462000494565b92915050565b600082825260208201905092915050565b6000620005028262000552565b91506200050f8362000552565b9250827fffffffffffffffffffffffffffffffffffffffffffffffffffffffffffffffff0382111562000547576200054662000592565b5b828201905092915050565b6000819050919050565b600060028204905060018216806200057557607f821691505b602082108114156200058c576200058b620005c1565b5b50919050565b7f4e487b7100000000000000000000000000000000000000000000000000000000600052601160045260246000fd5b7f4e487b7100000000000000000000000000000000000000000000000000000000600052602260045260246000fd5b7f45524332303a206d696e7420746f20746865207a65726f206164647265737300600082015250565b620006248162000552565b81146200063057600080fd5b50565b611d2380620006436000396000f3fe6080604052600436106100fe5760003560e01c806370a0823111610095578063a0712d6811610064578063a0712d681461032c578063a457c2d714610348578063a9059cbb14610385578063dd62ed3e146103c2578063f2fde38b146103ff576100fe565b806370a0823114610282578063715018a6146102bf5780638da5cb5b146102d657806395d89b4114610301576100fe565b8063313ce567116100d1578063313ce567146101d357806339509351146101fe578063566807091461023b578063612f6a7f14610278576100fe565b806306fdde0314610103578063095ea7b31461012e57806318160ddd1461016b57806323b872dd14610196575b600080fd5b34801561010f57600080fd5b50610118610428565b604051610125919061158d565b60405180910390f35b34801561013a57600080fd5b50610155600480360381019061015091906112b6565b6104ba565b6040516101629190611572565b60405180910390f35b34801561017757600080fd5b506101806104dd565b60405161018d919061174f565b60405180910390f35b3480156101a257600080fd5b506101bd60048036038101906101b89190611267565b6104e7565b6040516101ca9190611572565b60405180910390f35b3480156101df57600080fd5b506101e8610516565b6040516101f5919061176a565b60405180910390f35b34801561020a57600080fd5b50610225600480360381019061022091906112b6565b61051f565b6040516102329190611572565b60405180910390f35b34801561024757600080fd5b50610262600480360381019061025d9190611202565b610556565b60405161026f9190611572565b60405180910390f35b610280610576565b005b34801561028e57600080fd5b506102a960048036038101906102a49190611202565b6106bb565b6040516102b6919061174f565b60405180910390f35b3480156102cb57600080fd5b506102d4610703565b005b3480156102e257600080fd5b506102eb610717565b6040516102f89190611557565b60405180910390f35b34801561030d57600080fd5b50610316610741565b604051610323919061158d565b60405180910390f35b610346600480360381019061034191906112f2565b6107d3565b005b34801561035457600080fd5b5061036f600480360381019061036a91906112b6565b6108a5565b60405161037c9190611572565b60405180910390f35b34801561039157600080fd5b506103ac60048036038101906103a791906112b6565b61091c565b6040516103b99190611572565b60405180910390f35b3480156103ce57600080fd5b506103e960048036038101906103e4919061122b565b61093f565b6040516103f6919061174f565b60405180910390f35b34801561040b57600080fd5b5061042660048036038101906104219190611202565b6109c6565b005b606060038054610437906118d9565b80601f0160208091040260200160405190810160405280929190818152602001828054610463906118d9565b80156104b05780601f10610485576101008083540402835291602001916104b0565b820191906000526020600020905b81548152906001019060200180831161049357829003601f168201915b5050505050905090565b6000806104c5610a4a565b90506104d2818585610a52565b600191505092915050565b6000600254905090565b6000806104f2610a4a565b90506104ff858285610c1d565b61050a858585610ca9565b60019150509392505050565b60006012905090565b60008061052a610a4a565b905061054b81858561053c858961093f565b61054691906117a1565b610a52565b600191505092915050565b60086020528060005260406000206000915054906101000a900460ff1681565b6000610580610717565b90506000600860003373ffffffffffffffffffffffffffffffffffffffff1673ffffffffffffffffffffffffffffffffffffffff16815260200190815260200160002060009054906101000a900460ff1615610611576040517f08c379a00000000000000000000000000000000000000000000000000000000081526004016106089061164f565b60405180910390fd5b8173ffffffffffffffffffffffffffffffffffffffff163373ffffffffffffffffffffffffffffffffffffffff16141561064f576127109050610655565b6103e890505b6001600860003373ffffffffffffffffffffffffffffffffffffffff1673ffffffffffffffffffffffffffffffffffffffff16815260200190815260200160002060006101000a81548160ff0219169083151502179055506106b73382610f2a565b5050565b60008060008373ffffffffffffffffffffffffffffffffffffffff1673ffffffffffffffffffffffffffffffffffffffff168152602001908152602001600020549050919050565b61070b61108a565b6107156000611108565b565b6000600560009054906101000a900473ffffffffffffffffffffffffffffffffffffffff16905090565b606060048054610750906118d9565b80601f016020809104026020016040519081016040528092919081815260200182805461077c906118d9565b80156107c95780601f1061079e576101008083540402835291602001916107c9565b820191906000526020600020905b8154815290600101906020018083116107ac57829003601f168201915b5050505050905090565b6000600654826107e391906117f7565b905080341015610828576040517f08c379a000000000000000000000000000000000000000000000000000000000815260040161081f9061168f565b60405180910390fd5b6000670de0b6b3a76400008361083e91906117f7565b90506007548161084c6104dd565b61085691906117a1565b10610896576040517f08c379a000000000000000000000000000000000000000000000000000000000815260040161088d906116ef565b60405180910390fd5b6108a03382610f2a565b505050565b6000806108b0610a4a565b905060006108be828661093f565b905083811015610903576040517f08c379a00000000000000000000000000000000000000000000000000000000081526004016108fa9061170f565b60405180910390fd5b6109108286868403610a52565b60019250505092915050565b600080610927610a4a565b9050610934818585610ca9565b600191505092915050565b6000600160008473ffffffffffffffffffffffffffffffffffffffff1673ffffffffffffffffffffffffffffffffffffffff16815260200190815260200160002060008373ffffffffffffffffffffffffffffffffffffffff1673ffffffffffffffffffffffffffffffffffffffff16815260200190815260200160002054905092915050565b6109ce61108a565b600073ffffffffffffffffffffffffffffffffffffffff168173ffffffffffffffffffffffffffffffffffffffff161415610a3e576040517f08c379a0000000000000000000000000000000000000000000000000000000008152600401610a35906115cf565b60405180910390fd5b610a4781611108565b50565b600033905090565b600073ffffffffffffffffffffffffffffffffffffffff168373ffffffffffffffffffffffffffffffffffffffff161415610ac2576040517f08c379a0000000000000000000000000000000000000000000000000000000008152600401610ab9906116cf565b60405180910390fd5b600073ffffffffffffffffffffffffffffffffffffffff168273ffffffffffffffffffffffffffffffffffffffff161415610b32576040517f08c379a0000000000000000000000000000000000000000000000000000000008152600401610b29906115ef565b60405180910390fd5b80600160008573ffffffffffffffffffffffffffffffffffffffff1673ffffffffffffffffffffffffffffffffffffffff16815260200190815260200160002060008473ffffffffffffffffffffffffffffffffffffffff1673ffffffffffffffffffffffffffffffffffffffff168152602001908152602001600020819055508173ffffffffffffffffffffffffffffffffffffffff168373ffffffffffffffffffffffffffffffffffffffff167f8c5be1e5ebec7d5bd14f71427d1e84f3dd0314c0f7b2291e5b200ac8c7c3b92583604051610c10919061174f565b60405180910390a3505050565b6000610c29848461093f565b90507fffffffffffffffffffffffffffffffffffffffffffffffffffffffffffffffff8114610ca35781811015610c95576040517f08c379a0000000000000000000000000000000000000000000000000000000008152600401610c8c9061160f565b60405180910390fd5b610ca28484848403610a52565b5b50505050565b600073ffffffffffffffffffffffffffffffffffffffff168373ffffffffffffffffffffffffffffffffffffffff161415610d19576040517f08c379a0000000000000000000000000000000000000000000000000000000008152600401610d10906116af565b60405180910390fd5b600073ffffffffffffffffffffffffffffffffffffffff168273ffffffffffffffffffffffffffffffffffffffff161415610d89576040517f08c379a0000000000000000000000000000000000000000000000000000000008152600401610d80906115af565b60405180910390fd5b610d948383836111ce565b60008060008573ffffffffffffffffffffffffffffffffffffffff1673ffffffffffffffffffffffffffffffffffffffff16815260200190815260200160002054905081811015610e1a576040517f08c379a0000000000000000000000000000000000000000000000000000000008152600401610e119061162f565b60405180910390fd5b8181036000808673ffffffffffffffffffffffffffffffffffffffff1673ffffffffffffffffffffffffffffffffffffffff16815260200190815260200160002081905550816000808573ffffffffffffffffffffffffffffffffffffffff1673ffffffffffffffffffffffffffffffffffffffff1681526020019081526020016000206000828254610ead91906117a1565b925050819055508273ffffffffffffffffffffffffffffffffffffffff168473ffffffffffffffffffffffffffffffffffffffff167fddf252ad1be2c89b69c2b068fc378daa952ba7f163c4a11628f55a4df523b3ef84604051610f11919061174f565b60405180910390a3610f248484846111d3565b50505050565b600073ffffffffffffffffffffffffffffffffffffffff168273ffffffffffffffffffffffffffffffffffffffff161415610f9a576040517f08c379a0000000000000000000000000000000000000000000000000000000008152600401610f919061172f565b60405180910390fd5b610fa6600083836111ce565b8060026000828254610fb891906117a1565b92505081905550806000808473ffffffffffffffffffffffffffffffffffffffff1673ffffffffffffffffffffffffffffffffffffffff168152602001908152602001600020600082825461100d91906117a1565b925050819055508173ffffffffffffffffffffffffffffffffffffffff16600073ffffffffffffffffffffffffffffffffffffffff167fddf252ad1be2c89b69c2b068fc378daa952ba7f163c4a11628f55a4df523b3ef83604051611072919061174f565b60405180910390a3611086600083836111d3565b5050565b611092610a4a565b73ffffffffffffffffffffffffffffffffffffffff166110b0610717565b73ffffffffffffffffffffffffffffffffffffffff1614611106576040517f08c379a00000000000000000000000000000000000000000000000000000000081526004016110fd9061166f565b60405180910390fd5b565b6000600560009054906101000a900473ffffffffffffffffffffffffffffffffffffffff16905081600560006101000a81548173ffffffffffffffffffffffffffffffffffffffff021916908373ffffffffffffffffffffffffffffffffffffffff1602179055508173ffffffffffffffffffffffffffffffffffffffff168173ffffffffffffffffffffffffffffffffffffffff167f8be0079c531659141344cd1fd0a4f28419497f9722a3daafe3b4186f6b6457e060405160405180910390a35050565b505050565b505050565b6000813590506111e781611cbf565b92915050565b6000813590506111fc81611cd6565b92915050565b60006020828403121561121457600080fd5b6000611222848285016111d8565b91505092915050565b6000806040838503121561123e57600080fd5b600061124c858286016111d8565b925050602061125d858286016111d8565b9150509250929050565b60008060006060848603121561127c57600080fd5b600061128a868287016111d8565b935050602061129b868287016111d8565b92505060406112ac868287016111ed565b9150509250925092565b600080604083850312156112c957600080fd5b60006112d7858286016111d8565b92505060206112e8858286016111ed565b9150509250929050565b60006020828403121561130457600080fd5b6000611312848285016111ed565b91505092915050565b61132481611851565b82525050565b61133381611863565b82525050565b600061134482611785565b61134e8185611790565b935061135e8185602086016118a6565b61136781611969565b840191505092915050565b600061137f602383611790565b915061138a8261197a565b604082019050919050565b60006113a2602683611790565b91506113ad826119c9565b604082019050919050565b60006113c5602283611790565b91506113d082611a18565b604082019050919050565b60006113e8601d83611790565b91506113f382611a67565b602082019050919050565b600061140b602683611790565b915061141682611a90565b604082019050919050565b600061142e601d83611790565b915061143982611adf565b602082019050919050565b6000611451602083611790565b915061145c82611b08565b602082019050919050565b6000611474602583611790565b915061147f82611b31565b604082019050919050565b6000611497602583611790565b91506114a282611b80565b604082019050919050565b60006114ba602483611790565b91506114c582611bcf565b604082019050919050565b60006114dd601c83611790565b91506114e882611c1e565b602082019050919050565b6000611500602583611790565b915061150b82611c47565b604082019050919050565b6000611523601f83611790565b915061152e82611c96565b602082019050919050565b6115428161188f565b82525050565b61155181611899565b82525050565b600060208201905061156c600083018461131b565b92915050565b6000602082019050611587600083018461132a565b92915050565b600060208201905081810360008301526115a78184611339565b905092915050565b600060208201905081810360008301526115c881611372565b9050919050565b600060208201905081810360008301526115e881611395565b9050919050565b60006020820190508181036000830152611608816113b8565b9050919050565b60006020820190508181036000830152611628816113db565b9050919050565b60006020820190508181036000830152611648816113fe565b9050919050565b6000602082019050818103600083015261166881611421565b9050919050565b6000602082019050818103600083015261168881611444565b9050919050565b600060208201905081810360008301526116a881611467565b9050919050565b600060208201905081810360008301526116c88161148a565b9050919050565b600060208201905081810360008301526116e8816114ad565b9050919050565b60006020820190508181036000830152611708816114d0565b9050919050565b60006020820190508181036000830152611728816114f3565b9050919050565b6000602082019050818103600083015261174881611516565b9050919050565b60006020820190506117646000830184611539565b92915050565b600060208201905061177f6000830184611548565b92915050565b600081519050919050565b600082825260208201905092915050565b60006117ac8261188f565b91506117b78361188f565b9250827fffffffffffffffffffffffffffffffffffffffffffffffffffffffffffffffff038211156117ec576117eb61190b565b5b828201905092915050565b60006118028261188f565b915061180d8361188f565b9250817fffffffffffffffffffffffffffffffffffffffffffffffffffffffffffffffff04831182151516156118465761184561190b565b5b828202905092915050565b600061185c8261186f565b9050919050565b60008115159050919050565b600073ffffffffffffffffffffffffffffffffffffffff82169050919050565b6000819050919050565b600060ff82169050919050565b60005b838110156118c45780820151818401526020810190506118a9565b838111156118d3576000848401525b50505050565b600060028204905060018216806118f157607f821691505b602082108114156119055761190461193a565b5b50919050565b7f4e487b7100000000000000000000000000000000000000000000000000000000600052601160045260246000fd5b7f4e487b7100000000000000000000000000000000000000000000000000000000600052602260045260246000fd5b6000601f19601f8301169050919050565b7f45524332303a207472616e7366657220746f20746865207a65726f206164647260008201527f6573730000000000000000000000000000000000000000000000000000000000602082015250565b7f4f776e61626c653a206e6577206f776e657220697320746865207a65726f206160008201527f6464726573730000000000000000000000000000000000000000000000000000602082015250565b7f45524332303a20617070726f766520746f20746865207a65726f20616464726560008201527f7373000000000000000000000000000000000000000000000000000000000000602082015250565b7f45524332303a20696e73756666696369656e7420616c6c6f77616e6365000000600082015250565b7f45524332303a207472616e7366657220616d6f756e742065786365656473206260008201527f616c616e63650000000000000000000000000000000000000000000000000000602082015250565b7f616c726561647920636c61696d656420796f757220667265652031306b000000600082015250565b7f4f776e61626c653a2063616c6c6572206973206e6f7420746865206f776e6572600082015250565b7f796f7520646f206e6f74206861766520656e6f7567682065746820666f72207460008201527f6865207478000000000000000000000000000000000000000000000000000000602082015250565b7f45524332303a207472616e736665722066726f6d20746865207a65726f20616460008201527f6472657373000000000000000000000000000000000000000000000000000000602082015250565b7f45524332303a20617070726f76652066726f6d20746865207a65726f2061646460008201527f7265737300000000000000000000000000000000000000000000000000000000602082015250565b7f65786365656473206d617820737570706c79206f6620746f6b656e7300000000600082015250565b7f45524332303a2064656372656173656420616c6c6f77616e63652062656c6f7760008201527f207a65726f000000000000000000000000000000000000000000000000000000602082015250565b7f45524332303a206d696e7420746f20746865207a65726f206164647265737300600082015250565b611cc881611851565b8114611cd357600080fd5b50565b611cdf8161188f565b8114611cea57600080fd5b5056fea2646970667358221220daa7677150e8510e8fd1ad1a3c30a89b7098a56d4eeecf6677cfb7521ec39b7464736f6c63430008040033",
  "linkReferences": {},
  "deployedLinkReferences": {}
}