{
  "_format": "hh-sol-artifact-1",
  "contractName": "Eternal",
  "sourceName": "contracts/Eternal.sol",
  "abi": [
    {
      "inputs": [
        {
          "internalType": "uint256",
          "name": "initialSupply",
          "type": "uint256"
        }
      ],
      "stateMutability": "nonpayable",
      "type": "constructor"
    },
    {
      "anonymous": false,
      "inputs": [
        {
          "indexed": true,
          "internalType": "address",
          "name": "owner",
          "type": "address"
        },
        {
          "indexed": true,
          "internalType": "address",
          "name": "spender",
          "type": "address"
        },
        {
          "indexed": false,
          "internalType": "uint256",
          "name": "value",
          "type": "uint256"
        }
      ],
      "name": "Approval",
      "type": "event"
    },
    {
      "anonymous": false,
      "inputs": [
        {
          "indexed": true,
          "internalType": "address",
          "name": "previousOwner",
          "type": "address"
        },
        {
          "indexed": true,
          "internalType": "address",
          "name": "newOwner",
          "type": "address"
        }
      ],
      "name": "OwnershipTransferred",
      "type": "event"
    },
    {
      "anonymous": false,
      "inputs": [
        {
          "indexed": true,
          "internalType": "address",
          "name": "from",
          "type": "address"
        },
        {
          "indexed": true,
          "internalType": "address",
          "name": "to",
          "type": "address"
        },
        {
          "indexed": false,
          "internalType": "uint256",
          "name": "value",
          "type": "uint256"
        }
      ],
      "name": "Transfer",
      "type": "event"
    },
    {
      "inputs": [
        {
          "internalType": "address",
          "name": "owner",
          "type": "address"
        },
        {
          "internalType": "address",
          "name": "spender",
          "type": "address"
        }
      ],
      "name": "allowance",
      "outputs": [
        {
          "internalType": "uint256",
          "name": "",
          "type": "uint256"
        }
      ],
      "stateMutability": "view",
      "type": "function"
    },
    {
      "inputs": [
        {
          "internalType": "address",
          "name": "spender",
          "type": "address"
        },
        {
          "internalType": "uint256",
          "name": "amount",
          "type": "uint256"
        }
      ],
      "name": "approve",
      "outputs": [
        {
          "internalType": "bool",
          "name": "",
          "type": "bool"
        }
      ],
      "stateMutability": "nonpayable",
      "type": "function"
    },
    {
      "inputs": [
        {
          "internalType": "address",
          "name": "account",
          "type": "address"
        }
      ],
      "name": "balanceOf",
      "outputs": [
        {
          "internalType": "uint256",
          "name": "",
          "type": "uint256"
        }
      ],
      "stateMutability": "view",
      "type": "function"
    },
    {
      "inputs": [],
      "name": "claimFree1k",
      "outputs": [],
      "stateMutability": "payable",
      "type": "function"
    },
    {
      "inputs": [],
      "name": "decimals",
      "outputs": [
        {
          "internalType": "uint8",
          "name": "",
          "type": "uint8"
        }
      ],
      "stateMutability": "view",
      "type": "function"
    },
    {
      "inputs": [
        {
          "internalType": "address",
          "name": "spender",
          "type": "address"
        },
        {
          "internalType": "uint256",
          "name": "subtractedValue",
          "type": "uint256"
        }
      ],
      "name": "decreaseAllowance",
      "outputs": [
        {
          "internalType": "bool",
          "name": "",
          "type": "bool"
        }
      ],
      "stateMutability": "nonpayable",
      "type": "function"
    },
    {
      "inputs": [
        {
          "internalType": "address",
          "name": "spender",
          "type": "address"
        },
        {
          "internalType": "uint256",
          "name": "addedValue",
          "type": "uint256"
        }
      ],
      "name": "increaseAllowance",
      "outputs": [
        {
          "internalType": "bool",
          "name": "",
          "type": "bool"
        }
      ],
      "stateMutability": "nonpayable",
      "type": "function"
    },
    {
      "inputs": [
        {
          "internalType": "uint256",
          "name": "amount",
          "type": "uint256"
        }
      ],
      "name": "mint",
      "outputs": [],
      "stateMutability": "payable",
      "type": "function"
    },
    {
      "inputs": [],
      "name": "name",
      "outputs": [
        {
          "internalType": "string",
          "name": "",
          "type": "string"
        }
      ],
      "stateMutability": "view",
      "type": "function"
    },
    {
      "inputs": [],
      "name": "owner",
      "outputs": [
        {
          "internalType": "address",
          "name": "",
          "type": "address"
        }
      ],
      "stateMutability": "view",
      "type": "function"
    },
    {
      "inputs": [],
      "name": "renounceOwnership",
      "outputs": [],
      "stateMutability": "nonpayable",
      "type": "function"
    },
    {
      "inputs": [],
      "name": "symbol",
      "outputs": [
        {
          "internalType": "string",
          "name": "",
          "type": "string"
        }
      ],
      "stateMutability": "view",
      "type": "function"
    },
    {
      "inputs": [],
      "name": "totalSupply",
      "outputs": [
        {
          "internalType": "uint256",
          "name": "",
          "type": "uint256"
        }
      ],
      "stateMutability": "view",
      "type": "function"
    },
    {
      "inputs": [
        {
          "internalType": "address",
          "name": "to",
          "type": "address"
        },
        {
          "internalType": "uint256",
          "name": "amount",
          "type": "uint256"
        }
      ],
      "name": "transfer",
      "outputs": [
        {
          "internalType": "bool",
          "name": "",
          "type": "bool"
        }
      ],
      "stateMutability": "nonpayable",
      "type": "function"
    },
    {
      "inputs": [
        {
          "internalType": "address",
          "name": "from",
          "type": "address"
        },
        {
          "internalType": "address",
          "name": "to",
          "type": "address"
        },
        {
          "internalType": "uint256",
          "name": "amount",
          "type": "uint256"
        }
      ],
      "name": "transferFrom",
      "outputs": [
        {
          "internalType": "bool",
          "name": "",
          "type": "bool"
        }
      ],
      "stateMutability": "nonpayable",
      "type": "function"
    },
    {
      "inputs": [
        {
          "internalType": "address",
          "name": "newOwner",
          "type": "address"
        }
      ],
      "name": "transferOwnership",
      "outputs": [],
      "stateMutability": "nonpayable",
      "type": "function"
    },
    {
      "inputs": [
        {
          "internalType": "address",
          "name": "",
          "type": "address"
        }
      ],
      "name": "walletsClaimed1k",
      "outputs": [
        {
          "internalType": "bool",
          "name": "",
          "type": "bool"
        }
      ],
      "stateMutability": "view",
      "type": "function"
    }
  ],
  "bytecode": "0x60806040526509184e72a0006006556a0422ca8b0a00a4250000006007553480156200002a57600080fd5b506040516200237538038062002375833981810160405281019062000050919062000441565b6040518060400160405280600781526020017f457465726e616c000000000000000000000000000000000000000000000000008152506040518060400160405280600381526020017f45545200000000000000000000000000000000000000000000000000000000008152508160039080519060200190620000d49291906200037a565b508060049080519060200190620000ed9291906200037a565b50505062000110620001046200012960201b60201c565b6200013160201b60201c565b620001223382620001f760201b60201c565b5062000633565b600033905090565b6000600560009054906101000a900473ffffffffffffffffffffffffffffffffffffffff16905081600560006101000a81548173ffffffffffffffffffffffffffffffffffffffff021916908373ffffffffffffffffffffffffffffffffffffffff1602179055508173ffffffffffffffffffffffffffffffffffffffff168173ffffffffffffffffffffffffffffffffffffffff167f8be0079c531659141344cd1fd0a4f28419497f9722a3daafe3b4186f6b6457e060405160405180910390a35050565b600073ffffffffffffffffffffffffffffffffffffffff168273ffffffffffffffffffffffffffffffffffffffff1614156200026a576040517f08c379a00000000000000000000000000000000000000000000000000000000081526004016200026190620004a5565b60405180910390fd5b6200027e600083836200037060201b60201c565b8060026000828254620002929190620004f5565b92505081905550806000808473ffffffffffffffffffffffffffffffffffffffff1673ffffffffffffffffffffffffffffffffffffffff1681526020019081526020016000206000828254620002e99190620004f5565b925050819055508173ffffffffffffffffffffffffffffffffffffffff16600073ffffffffffffffffffffffffffffffffffffffff167fddf252ad1be2c89b69c2b068fc378daa952ba7f163c4a11628f55a4df523b3ef83604051620003509190620004c7565b60405180910390a36200036c600083836200037560201b60201c565b5050565b505050565b505050565b82805462000388906200055c565b90600052602060002090601f016020900481019282620003ac5760008555620003f8565b82601f10620003c757805160ff1916838001178555620003f8565b82800160010185558215620003f8579182015b82811115620003f7578251825591602001919060010190620003da565b5b5090506200040791906200040b565b5090565b5b80821115620004265760008160009055506001016200040c565b5090565b6000815190506200043b8162000619565b92915050565b6000602082840312156200045457600080fd5b600062000464848285016200042a565b91505092915050565b60006200047c601f83620004e4565b91506200048982620005f0565b602082019050919050565b6200049f8162000552565b82525050565b60006020820190508181036000830152620004c0816200046d565b9050919050565b6000602082019050620004de600083018462000494565b92915050565b600082825260208201905092915050565b6000620005028262000552565b91506200050f8362000552565b9250827fffffffffffffffffffffffffffffffffffffffffffffffffffffffffffffffff0382111562000547576200054662000592565b5b828201905092915050565b6000819050919050565b600060028204905060018216806200057557607f821691505b602082108114156200058c576200058b620005c1565b5b50919050565b7f4e487b7100000000000000000000000000000000000000000000000000000000600052601160045260246000fd5b7f4e487b7100000000000000000000000000000000000000000000000000000000600052602260045260246000fd5b7f45524332303a206d696e7420746f20746865207a65726f206164647265737300600082015250565b620006248162000552565b81146200063057600080fd5b50565b611d3280620006436000396000f3fe6080604052600436106100fe5760003560e01c806370a0823111610095578063a0712d6811610064578063a0712d681461032c578063a457c2d714610348578063a9059cbb14610385578063dd62ed3e146103c2578063f2fde38b146103ff576100fe565b806370a0823114610282578063715018a6146102bf5780638da5cb5b146102d657806395d89b4114610301576100fe565b8063313ce567116100d1578063313ce567146101d357806339509351146101fe578063566807091461023b578063612f6a7f14610278576100fe565b806306fdde0314610103578063095ea7b31461012e57806318160ddd1461016b57806323b872dd14610196575b600080fd5b34801561010f57600080fd5b50610118610428565b604051610125919061159c565b60405180910390f35b34801561013a57600080fd5b50610155600480360381019061015091906112c5565b6104ba565b6040516101629190611581565b60405180910390f35b34801561017757600080fd5b506101806104dd565b60405161018d919061175e565b60405180910390f35b3480156101a257600080fd5b506101bd60048036038101906101b89190611276565b6104e7565b6040516101ca9190611581565b60405180910390f35b3480156101df57600080fd5b506101e8610516565b6040516101f59190611779565b60405180910390f35b34801561020a57600080fd5b50610225600480360381019061022091906112c5565b61051f565b6040516102329190611581565b60405180910390f35b34801561024757600080fd5b50610262600480360381019061025d9190611211565b610556565b60405161026f9190611581565b60405180910390f35b610280610576565b005b34801561028e57600080fd5b506102a960048036038101906102a49190611211565b6106ca565b6040516102b6919061175e565b60405180910390f35b3480156102cb57600080fd5b506102d4610712565b005b3480156102e257600080fd5b506102eb610726565b6040516102f89190611566565b60405180910390f35b34801561030d57600080fd5b50610316610750565b604051610323919061159c565b60405180910390f35b61034660048036038101906103419190611301565b6107e2565b005b34801561035457600080fd5b5061036f600480360381019061036a91906112c5565b6108b4565b60405161037c9190611581565b60405180910390f35b34801561039157600080fd5b506103ac60048036038101906103a791906112c5565b61092b565b6040516103b99190611581565b60405180910390f35b3480156103ce57600080fd5b506103e960048036038101906103e4919061123a565b61094e565b6040516103f6919061175e565b60405180910390f35b34801561040b57600080fd5b5061042660048036038101906104219190611211565b6109d5565b005b606060038054610437906118e8565b80601f0160208091040260200160405190810160405280929190818152602001828054610463906118e8565b80156104b05780601f10610485576101008083540402835291602001916104b0565b820191906000526020600020905b81548152906001019060200180831161049357829003601f168201915b5050505050905090565b6000806104c5610a59565b90506104d2818585610a61565b600191505092915050565b6000600254905090565b6000806104f2610a59565b90506104ff858285610c2c565b61050a858585610cb8565b60019150509392505050565b60006012905090565b60008061052a610a59565b905061054b81858561053c858961094e565b61054691906117b0565b610a61565b600191505092915050565b60086020528060005260406000206000915054906101000a900460ff1681565b6000610580610726565b90506000600860003373ffffffffffffffffffffffffffffffffffffffff1673ffffffffffffffffffffffffffffffffffffffff16815260200190815260200160002060009054906101000a900460ff1615610611576040517f08c379a00000000000000000000000000000000000000000000000000000000081526004016106089061165e565b60405180910390fd5b8173ffffffffffffffffffffffffffffffffffffffff163373ffffffffffffffffffffffffffffffffffffffff1614156106575769021e19e0c9bab24000009050610664565b683635c9adc5dea0000090505b6001600860003373ffffffffffffffffffffffffffffffffffffffff1673ffffffffffffffffffffffffffffffffffffffff16815260200190815260200160002060006101000a81548160ff0219169083151502179055506106c63382610f39565b5050565b60008060008373ffffffffffffffffffffffffffffffffffffffff1673ffffffffffffffffffffffffffffffffffffffff168152602001908152602001600020549050919050565b61071a611099565b6107246000611117565b565b6000600560009054906101000a900473ffffffffffffffffffffffffffffffffffffffff16905090565b60606004805461075f906118e8565b80601f016020809104026020016040519081016040528092919081815260200182805461078b906118e8565b80156107d85780601f106107ad576101008083540402835291602001916107d8565b820191906000526020600020905b8154815290600101906020018083116107bb57829003601f168201915b5050505050905090565b6000600654826107f29190611806565b905080341015610837576040517f08c379a000000000000000000000000000000000000000000000000000000000815260040161082e9061169e565b60405180910390fd5b6000670de0b6b3a76400008361084d9190611806565b90506007548161085b6104dd565b61086591906117b0565b106108a5576040517f08c379a000000000000000000000000000000000000000000000000000000000815260040161089c906116fe565b60405180910390fd5b6108af3382610f39565b505050565b6000806108bf610a59565b905060006108cd828661094e565b905083811015610912576040517f08c379a00000000000000000000000000000000000000000000000000000000081526004016109099061171e565b60405180910390fd5b61091f8286868403610a61565b60019250505092915050565b600080610936610a59565b9050610943818585610cb8565b600191505092915050565b6000600160008473ffffffffffffffffffffffffffffffffffffffff1673ffffffffffffffffffffffffffffffffffffffff16815260200190815260200160002060008373ffffffffffffffffffffffffffffffffffffffff1673ffffffffffffffffffffffffffffffffffffffff16815260200190815260200160002054905092915050565b6109dd611099565b600073ffffffffffffffffffffffffffffffffffffffff168173ffffffffffffffffffffffffffffffffffffffff161415610a4d576040517f08c379a0000000000000000000000000000000000000000000000000000000008152600401610a44906115de565b60405180910390fd5b610a5681611117565b50565b600033905090565b600073ffffffffffffffffffffffffffffffffffffffff168373ffffffffffffffffffffffffffffffffffffffff161415610ad1576040517f08c379a0000000000000000000000000000000000000000000000000000000008152600401610ac8906116de565b60405180910390fd5b600073ffffffffffffffffffffffffffffffffffffffff168273ffffffffffffffffffffffffffffffffffffffff161415610b41576040517f08c379a0000000000000000000000000000000000000000000000000000000008152600401610b38906115fe565b60405180910390fd5b80600160008573ffffffffffffffffffffffffffffffffffffffff1673ffffffffffffffffffffffffffffffffffffffff16815260200190815260200160002060008473ffffffffffffffffffffffffffffffffffffffff1673ffffffffffffffffffffffffffffffffffffffff168152602001908152602001600020819055508173ffffffffffffffffffffffffffffffffffffffff168373ffffffffffffffffffffffffffffffffffffffff167f8c5be1e5ebec7d5bd14f71427d1e84f3dd0314c0f7b2291e5b200ac8c7c3b92583604051610c1f919061175e565b60405180910390a3505050565b6000610c38848461094e565b90507fffffffffffffffffffffffffffffffffffffffffffffffffffffffffffffffff8114610cb25781811015610ca4576040517f08c379a0000000000000000000000000000000000000000000000000000000008152600401610c9b9061161e565b60405180910390fd5b610cb18484848403610a61565b5b50505050565b600073ffffffffffffffffffffffffffffffffffffffff168373ffffffffffffffffffffffffffffffffffffffff161415610d28576040517f08c379a0000000000000000000000000000000000000000000000000000000008152600401610d1f906116be565b60405180910390fd5b600073ffffffffffffffffffffffffffffffffffffffff168273ffffffffffffffffffffffffffffffffffffffff161415610d98576040517f08c379a0000000000000000000000000000000000000000000000000000000008152600401610d8f906115be565b60405180910390fd5b610da38383836111dd565b60008060008573ffffffffffffffffffffffffffffffffffffffff1673ffffffffffffffffffffffffffffffffffffffff16815260200190815260200160002054905081811015610e29576040517f08c379a0000000000000000000000000000000000000000000000000000000008152600401610e209061163e565b60405180910390fd5b8181036000808673ffffffffffffffffffffffffffffffffffffffff1673ffffffffffffffffffffffffffffffffffffffff16815260200190815260200160002081905550816000808573ffffffffffffffffffffffffffffffffffffffff1673ffffffffffffffffffffffffffffffffffffffff1681526020019081526020016000206000828254610ebc91906117b0565b925050819055508273ffffffffffffffffffffffffffffffffffffffff168473ffffffffffffffffffffffffffffffffffffffff167fddf252ad1be2c89b69c2b068fc378daa952ba7f163c4a11628f55a4df523b3ef84604051610f20919061175e565b60405180910390a3610f338484846111e2565b50505050565b600073ffffffffffffffffffffffffffffffffffffffff168273ffffffffffffffffffffffffffffffffffffffff161415610fa9576040517f08c379a0000000000000000000000000000000000000000000000000000000008152600401610fa09061173e565b60405180910390fd5b610fb5600083836111dd565b8060026000828254610fc791906117b0565b92505081905550806000808473ffffffffffffffffffffffffffffffffffffffff1673ffffffffffffffffffffffffffffffffffffffff168152602001908152602001600020600082825461101c91906117b0565b925050819055508173ffffffffffffffffffffffffffffffffffffffff16600073ffffffffffffffffffffffffffffffffffffffff167fddf252ad1be2c89b69c2b068fc378daa952ba7f163c4a11628f55a4df523b3ef83604051611081919061175e565b60405180910390a3611095600083836111e2565b5050565b6110a1610a59565b73ffffffffffffffffffffffffffffffffffffffff166110bf610726565b73ffffffffffffffffffffffffffffffffffffffff1614611115576040517f08c379a000000000000000000000000000000000000000000000000000000000815260040161110c9061167e565b60405180910390fd5b565b6000600560009054906101000a900473ffffffffffffffffffffffffffffffffffffffff16905081600560006101000a81548173ffffffffffffffffffffffffffffffffffffffff021916908373ffffffffffffffffffffffffffffffffffffffff1602179055508173ffffffffffffffffffffffffffffffffffffffff168173ffffffffffffffffffffffffffffffffffffffff167f8be0079c531659141344cd1fd0a4f28419497f9722a3daafe3b4186f6b6457e060405160405180910390a35050565b505050565b505050565b6000813590506111f681611cce565b92915050565b60008135905061120b81611ce5565b92915050565b60006020828403121561122357600080fd5b6000611231848285016111e7565b91505092915050565b6000806040838503121561124d57600080fd5b600061125b858286016111e7565b925050602061126c858286016111e7565b9150509250929050565b60008060006060848603121561128b57600080fd5b6000611299868287016111e7565b93505060206112aa868287016111e7565b92505060406112bb868287016111fc565b9150509250925092565b600080604083850312156112d857600080fd5b60006112e6858286016111e7565b92505060206112f7858286016111fc565b9150509250929050565b60006020828403121561131357600080fd5b6000611321848285016111fc565b91505092915050565b61133381611860565b82525050565b61134281611872565b82525050565b600061135382611794565b61135d818561179f565b935061136d8185602086016118b5565b61137681611978565b840191505092915050565b600061138e60238361179f565b915061139982611989565b604082019050919050565b60006113b160268361179f565b91506113bc826119d8565b604082019050919050565b60006113d460228361179f565b91506113df82611a27565b604082019050919050565b60006113f7601d8361179f565b915061140282611a76565b602082019050919050565b600061141a60268361179f565b915061142582611a9f565b604082019050919050565b600061143d601d8361179f565b915061144882611aee565b602082019050919050565b600061146060208361179f565b915061146b82611b17565b602082019050919050565b600061148360258361179f565b915061148e82611b40565b604082019050919050565b60006114a660258361179f565b91506114b182611b8f565b604082019050919050565b60006114c960248361179f565b91506114d482611bde565b604082019050919050565b60006114ec601c8361179f565b91506114f782611c2d565b602082019050919050565b600061150f60258361179f565b915061151a82611c56565b604082019050919050565b6000611532601f8361179f565b915061153d82611ca5565b602082019050919050565b6115518161189e565b82525050565b611560816118a8565b82525050565b600060208201905061157b600083018461132a565b92915050565b60006020820190506115966000830184611339565b92915050565b600060208201905081810360008301526115b68184611348565b905092915050565b600060208201905081810360008301526115d781611381565b9050919050565b600060208201905081810360008301526115f7816113a4565b9050919050565b60006020820190508181036000830152611617816113c7565b9050919050565b60006020820190508181036000830152611637816113ea565b9050919050565b600060208201905081810360008301526116578161140d565b9050919050565b6000602082019050818103600083015261167781611430565b9050919050565b6000602082019050818103600083015261169781611453565b9050919050565b600060208201905081810360008301526116b781611476565b9050919050565b600060208201905081810360008301526116d781611499565b9050919050565b600060208201905081810360008301526116f7816114bc565b9050919050565b60006020820190508181036000830152611717816114df565b9050919050565b6000602082019050818103600083015261173781611502565b9050919050565b6000602082019050818103600083015261175781611525565b9050919050565b60006020820190506117736000830184611548565b92915050565b600060208201905061178e6000830184611557565b92915050565b600081519050919050565b600082825260208201905092915050565b60006117bb8261189e565b91506117c68361189e565b9250827fffffffffffffffffffffffffffffffffffffffffffffffffffffffffffffffff038211156117fb576117fa61191a565b5b828201905092915050565b60006118118261189e565b915061181c8361189e565b9250817fffffffffffffffffffffffffffffffffffffffffffffffffffffffffffffffff04831182151516156118555761185461191a565b5b828202905092915050565b600061186b8261187e565b9050919050565b60008115159050919050565b600073ffffffffffffffffffffffffffffffffffffffff82169050919050565b6000819050919050565b600060ff82169050919050565b60005b838110156118d35780820151818401526020810190506118b8565b838111156118e2576000848401525b50505050565b6000600282049050600182168061190057607f821691505b6020821081141561191457611913611949565b5b50919050565b7f4e487b7100000000000000000000000000000000000000000000000000000000600052601160045260246000fd5b7f4e487b7100000000000000000000000000000000000000000000000000000000600052602260045260246000fd5b6000601f19601f8301169050919050565b7f45524332303a207472616e7366657220746f20746865207a65726f206164647260008201527f6573730000000000000000000000000000000000000000000000000000000000602082015250565b7f4f776e61626c653a206e6577206f776e657220697320746865207a65726f206160008201527f6464726573730000000000000000000000000000000000000000000000000000602082015250565b7f45524332303a20617070726f766520746f20746865207a65726f20616464726560008201527f7373000000000000000000000000000000000000000000000000000000000000602082015250565b7f45524332303a20696e73756666696369656e7420616c6c6f77616e6365000000600082015250565b7f45524332303a207472616e7366657220616d6f756e742065786365656473206260008201527f616c616e63650000000000000000000000000000000000000000000000000000602082015250565b7f616c726561647920636c61696d656420796f757220667265652031306b000000600082015250565b7f4f776e61626c653a2063616c6c6572206973206e6f7420746865206f776e6572600082015250565b7f796f7520646f206e6f74206861766520656e6f7567682065746820666f72207460008201527f6865207478000000000000000000000000000000000000000000000000000000602082015250565b7f45524332303a207472616e736665722066726f6d20746865207a65726f20616460008201527f6472657373000000000000000000000000000000000000000000000000000000602082015250565b7f45524332303a20617070726f76652066726f6d20746865207a65726f2061646460008201527f7265737300000000000000000000000000000000000000000000000000000000602082015250565b7f65786365656473206d617820737570706c79206f6620746f6b656e7300000000600082015250565b7f45524332303a2064656372656173656420616c6c6f77616e63652062656c6f7760008201527f207a65726f000000000000000000000000000000000000000000000000000000602082015250565b7f45524332303a206d696e7420746f20746865207a65726f206164647265737300600082015250565b611cd781611860565b8114611ce257600080fd5b50565b611cee8161189e565b8114611cf957600080fd5b5056fea2646970667358221220132af837a170f49bae0b74277991a14b81673e83fbf9adb56d4fa22854fcbd2b64736f6c63430008040033",
  "linkReferences": {},
  "deployedLinkReferences": {}
}