{
  "_format": "hh-sol-artifact-1",
  "contractName": "SoldierNFT",
  "sourceName": "contracts/SoldierNFT.sol",
  "abi": [
    {
      "inputs": [],
      "stateMutability": "nonpayable",
      "type": "constructor"
    },
    {
      "anonymous": false,
      "inputs": [
        {
          "indexed": true,
          "internalType": "address",
          "name": "owner",
          "type": "address"
        },
        {
          "indexed": true,
          "internalType": "address",
          "name": "approved",
          "type": "address"
        },
        {
          "indexed": true,
          "internalType": "uint256",
          "name": "tokenId",
          "type": "uint256"
        }
      ],
      "name": "Approval",
      "type": "event"
    },
    {
      "anonymous": false,
      "inputs": [
        {
          "indexed": true,
          "internalType": "address",
          "name": "owner",
          "type": "address"
        },
        {
          "indexed": true,
          "internalType": "address",
          "name": "operator",
          "type": "address"
        },
        {
          "indexed": false,
          "internalType": "bool",
          "name": "approved",
          "type": "bool"
        }
      ],
      "name": "ApprovalForAll",
      "type": "event"
    },
    {
      "anonymous": false,
      "inputs": [
        {
          "indexed": true,
          "internalType": "address",
          "name": "previousOwner",
          "type": "address"
        },
        {
          "indexed": true,
          "internalType": "address",
          "name": "newOwner",
          "type": "address"
        }
      ],
      "name": "OwnershipTransferred",
      "type": "event"
    },
    {
      "anonymous": false,
      "inputs": [
        {
          "indexed": true,
          "internalType": "address",
          "name": "from",
          "type": "address"
        },
        {
          "indexed": true,
          "internalType": "address",
          "name": "to",
          "type": "address"
        },
        {
          "indexed": true,
          "internalType": "uint256",
          "name": "tokenId",
          "type": "uint256"
        }
      ],
      "name": "Transfer",
      "type": "event"
    },
    {
      "stateMutability": "payable",
      "type": "fallback"
    },
    {
      "inputs": [
        {
          "internalType": "address",
          "name": "to",
          "type": "address"
        },
        {
          "internalType": "uint256",
          "name": "tokenId",
          "type": "uint256"
        }
      ],
      "name": "approve",
      "outputs": [],
      "stateMutability": "nonpayable",
      "type": "function"
    },
    {
      "inputs": [
        {
          "internalType": "address",
          "name": "owner",
          "type": "address"
        }
      ],
      "name": "balanceOf",
      "outputs": [
        {
          "internalType": "uint256",
          "name": "",
          "type": "uint256"
        }
      ],
      "stateMutability": "view",
      "type": "function"
    },
    {
      "inputs": [
        {
          "internalType": "uint256",
          "name": "tokenId",
          "type": "uint256"
        }
      ],
      "name": "getApproved",
      "outputs": [
        {
          "internalType": "address",
          "name": "",
          "type": "address"
        }
      ],
      "stateMutability": "view",
      "type": "function"
    },
    {
      "inputs": [],
      "name": "getMyNfts",
      "outputs": [
        {
          "internalType": "uint256[]",
          "name": "_misTokens",
          "type": "uint256[]"
        }
      ],
      "stateMutability": "view",
      "type": "function"
    },
    {
      "inputs": [],
      "name": "getPrice",
      "outputs": [
        {
          "internalType": "uint256",
          "name": "",
          "type": "uint256"
        }
      ],
      "stateMutability": "view",
      "type": "function"
    },
    {
      "inputs": [
        {
          "internalType": "address",
          "name": "owner",
          "type": "address"
        },
        {
          "internalType": "address",
          "name": "operator",
          "type": "address"
        }
      ],
      "name": "isApprovedForAll",
      "outputs": [
        {
          "internalType": "bool",
          "name": "",
          "type": "bool"
        }
      ],
      "stateMutability": "view",
      "type": "function"
    },
    {
      "inputs": [
        {
          "internalType": "string",
          "name": "_tokenURI",
          "type": "string"
        }
      ],
      "name": "mint",
      "outputs": [
        {
          "internalType": "uint256",
          "name": "",
          "type": "uint256"
        }
      ],
      "stateMutability": "payable",
      "type": "function"
    },
    {
      "inputs": [],
      "name": "name",
      "outputs": [
        {
          "internalType": "string",
          "name": "",
          "type": "string"
        }
      ],
      "stateMutability": "view",
      "type": "function"
    },
    {
      "inputs": [],
      "name": "owner",
      "outputs": [
        {
          "internalType": "address",
          "name": "",
          "type": "address"
        }
      ],
      "stateMutability": "view",
      "type": "function"
    },
    {
      "inputs": [
        {
          "internalType": "uint256",
          "name": "tokenId",
          "type": "uint256"
        }
      ],
      "name": "ownerOf",
      "outputs": [
        {
          "internalType": "address",
          "name": "",
          "type": "address"
        }
      ],
      "stateMutability": "view",
      "type": "function"
    },
    {
      "inputs": [],
      "name": "renounceOwnership",
      "outputs": [],
      "stateMutability": "nonpayable",
      "type": "function"
    },
    {
      "inputs": [
        {
          "internalType": "address",
          "name": "from",
          "type": "address"
        },
        {
          "internalType": "address",
          "name": "to",
          "type": "address"
        },
        {
          "internalType": "uint256",
          "name": "tokenId",
          "type": "uint256"
        }
      ],
      "name": "safeTransferFrom",
      "outputs": [],
      "stateMutability": "nonpayable",
      "type": "function"
    },
    {
      "inputs": [
        {
          "internalType": "address",
          "name": "from",
          "type": "address"
        },
        {
          "internalType": "address",
          "name": "to",
          "type": "address"
        },
        {
          "internalType": "uint256",
          "name": "tokenId",
          "type": "uint256"
        },
        {
          "internalType": "bytes",
          "name": "data",
          "type": "bytes"
        }
      ],
      "name": "safeTransferFrom",
      "outputs": [],
      "stateMutability": "nonpayable",
      "type": "function"
    },
    {
      "inputs": [
        {
          "internalType": "address",
          "name": "operator",
          "type": "address"
        },
        {
          "internalType": "bool",
          "name": "approved",
          "type": "bool"
        }
      ],
      "name": "setApprovalForAll",
      "outputs": [],
      "stateMutability": "nonpayable",
      "type": "function"
    },
    {
      "inputs": [
        {
          "internalType": "bytes4",
          "name": "interfaceId",
          "type": "bytes4"
        }
      ],
      "name": "supportsInterface",
      "outputs": [
        {
          "internalType": "bool",
          "name": "",
          "type": "bool"
        }
      ],
      "stateMutability": "view",
      "type": "function"
    },
    {
      "inputs": [],
      "name": "symbol",
      "outputs": [
        {
          "internalType": "string",
          "name": "",
          "type": "string"
        }
      ],
      "stateMutability": "view",
      "type": "function"
    },
    {
      "inputs": [],
      "name": "tokenCount",
      "outputs": [
        {
          "internalType": "uint256",
          "name": "",
          "type": "uint256"
        }
      ],
      "stateMutability": "view",
      "type": "function"
    },
    {
      "inputs": [
        {
          "internalType": "uint256",
          "name": "tokenId",
          "type": "uint256"
        }
      ],
      "name": "tokenURI",
      "outputs": [
        {
          "internalType": "string",
          "name": "",
          "type": "string"
        }
      ],
      "stateMutability": "view",
      "type": "function"
    },
    {
      "inputs": [
        {
          "internalType": "address",
          "name": "from",
          "type": "address"
        },
        {
          "internalType": "address",
          "name": "to",
          "type": "address"
        },
        {
          "internalType": "uint256",
          "name": "tokenId",
          "type": "uint256"
        }
      ],
      "name": "transferFrom",
      "outputs": [],
      "stateMutability": "nonpayable",
      "type": "function"
    },
    {
      "inputs": [
        {
          "internalType": "address",
          "name": "newOwner",
          "type": "address"
        }
      ],
      "name": "transferOwnership",
      "outputs": [],
      "stateMutability": "nonpayable",
      "type": "function"
    },
    {
      "inputs": [],
      "name": "withdraw",
      "outputs": [],
      "stateMutability": "nonpayable",
      "type": "function"
    },
    {
      "stateMutability": "payable",
      "type": "receive"
    }
  ],
  "bytecode": "0x6080604052660110d9316ec0006008553480156200001c57600080fd5b506040518060400160405280600781526020017f536f6c64696572000000000000000000000000000000000000000000000000008152506040518060400160405280600381526020017f534c440000000000000000000000000000000000000000000000000000000000815250620000a96200009d620000f060201b60201c565b620000f860201b60201c565b8160019080519060200190620000c1929190620001bc565b508060029080519060200190620000da929190620001bc565b505050655af3107a4000600881905550620002d1565b600033905090565b60008060009054906101000a900473ffffffffffffffffffffffffffffffffffffffff169050816000806101000a81548173ffffffffffffffffffffffffffffffffffffffff021916908373ffffffffffffffffffffffffffffffffffffffff1602179055508173ffffffffffffffffffffffffffffffffffffffff168173ffffffffffffffffffffffffffffffffffffffff167f8be0079c531659141344cd1fd0a4f28419497f9722a3daafe3b4186f6b6457e060405160405180910390a35050565b828054620001ca906200026c565b90600052602060002090601f016020900481019282620001ee57600085556200023a565b82601f106200020957805160ff19168380011785556200023a565b828001600101855582156200023a579182015b82811115620002395782518255916020019190600101906200021c565b5b5090506200024991906200024d565b5090565b5b80821115620002685760008160009055506001016200024e565b5090565b600060028204905060018216806200028557607f821691505b602082108114156200029c576200029b620002a2565b5b50919050565b7f4e487b7100000000000000000000000000000000000000000000000000000000600052602260045260246000fd5b61323580620002e16000396000f3fe60806040526004361061012e5760003560e01c8063715018a6116100ab578063a22cb4651161006f578063a22cb465146103d6578063b88d4fde146103ff578063c87b56dd14610428578063d85d3d2714610465578063e985e9c514610495578063f2fde38b146104d257610135565b8063715018a6146103135780638da5cb5b1461032a57806395d89b411461035557806398d5fdca146103805780639f181b5e146103ab57610135565b806323b872dd116100f257806323b872dd146102305780633ccfd60b1461025957806342842e0e146102705780636352211e1461029957806370a08231146102d657610135565b806301ffc9a714610137578063047b07bf1461017457806306fdde031461019f578063081812fc146101ca578063095ea7b31461020757610135565b3661013557005b005b34801561014357600080fd5b5061015e600480360381019061015991906121ed565b6104fb565b60405161016b9190612713565b60405180910390f35b34801561018057600080fd5b506101896105dd565b60405161019691906126f1565b60405180910390f35b3480156101ab57600080fd5b506101b461072b565b6040516101c1919061272e565b60405180910390f35b3480156101d657600080fd5b506101f160048036038101906101ec9190612280565b6107bd565b6040516101fe919061268a565b60405180910390f35b34801561021357600080fd5b5061022e600480360381019061022991906121b1565b610803565b005b34801561023c57600080fd5b50610257600480360381019061025291906120ab565b61091b565b005b34801561026557600080fd5b5061026e61097b565b005b34801561027c57600080fd5b50610297600480360381019061029291906120ab565b610a3d565b005b3480156102a557600080fd5b506102c060048036038101906102bb9190612280565b610a5d565b6040516102cd919061268a565b60405180910390f35b3480156102e257600080fd5b506102fd60048036038101906102f89190612046565b610b0f565b60405161030a9190612950565b60405180910390f35b34801561031f57600080fd5b50610328610bc7565b005b34801561033657600080fd5b5061033f610bdb565b60405161034c919061268a565b60405180910390f35b34801561036157600080fd5b5061036a610c04565b604051610377919061272e565b60405180910390f35b34801561038c57600080fd5b50610395610c96565b6040516103a29190612950565b60405180910390f35b3480156103b757600080fd5b506103c0610ca0565b6040516103cd9190612950565b60405180910390f35b3480156103e257600080fd5b506103fd60048036038101906103f89190612175565b610ca6565b005b34801561040b57600080fd5b50610426600480360381019061042191906120fa565b610cbc565b005b34801561043457600080fd5b5061044f600480360381019061044a9190612280565b610d1e565b60405161045c919061272e565b60405180910390f35b61047f600480360381019061047a919061223f565b610e31565b60405161048c9190612950565b60405180910390f35b3480156104a157600080fd5b506104bc60048036038101906104b7919061206f565b610eb2565b6040516104c99190612713565b60405180910390f35b3480156104de57600080fd5b506104f960048036038101906104f49190612046565b610f46565b005b60007f80ac58cd000000000000000000000000000000000000000000000000000000007bffffffffffffffffffffffffffffffffffffffffffffffffffffffff1916827bffffffffffffffffffffffffffffffffffffffffffffffffffffffff191614806105c657507f5b5e139f000000000000000000000000000000000000000000000000000000007bffffffffffffffffffffffffffffffffffffffffffffffffffffffff1916827bffffffffffffffffffffffffffffffffffffffffffffffffffffffff1916145b806105d657506105d582610fca565b5b9050919050565b60606105e833610b0f565b67ffffffffffffffff811115610627577f4e487b7100000000000000000000000000000000000000000000000000000000600052604160045260246000fd5b6040519080825280602002602001820160405280156106555781602001602082028036833780820191505090505b509050600080600090505b600954811015610726573373ffffffffffffffffffffffffffffffffffffffff166106966001836106919190612a79565b610a5d565b73ffffffffffffffffffffffffffffffffffffffff161415610713576001816106bf9190612a79565b8383815181106106f8577f4e487b7100000000000000000000000000000000000000000000000000000000600052603260045260246000fd5b602002602001018181525050818061070f90612c4d565b9250505b808061071e90612c4d565b915050610660565b505090565b60606001805461073a90612bea565b80601f016020809104026020016040519081016040528092919081815260200182805461076690612bea565b80156107b35780601f10610788576101008083540402835291602001916107b3565b820191906000526020600020905b81548152906001019060200180831161079657829003601f168201915b5050505050905090565b60006107c882611034565b6005600083815260200190815260200160002060009054906101000a900473ffffffffffffffffffffffffffffffffffffffff169050919050565b600061080e82610a5d565b90508073ffffffffffffffffffffffffffffffffffffffff168373ffffffffffffffffffffffffffffffffffffffff16141561087f576040517f08c379a000000000000000000000000000000000000000000000000000000000815260040161087690612910565b60405180910390fd5b8073ffffffffffffffffffffffffffffffffffffffff1661089e61107f565b73ffffffffffffffffffffffffffffffffffffffff1614806108cd57506108cc816108c761107f565b610eb2565b5b61090c576040517f08c379a000000000000000000000000000000000000000000000000000000000815260040161090390612890565b60405180910390fd5b6109168383611087565b505050565b61092c61092661107f565b82611140565b61096b576040517f08c379a000000000000000000000000000000000000000000000000000000000815260040161096290612930565b60405180910390fd5b6109768383836111d5565b505050565b6000610985610bdb565b9050600047905060008273ffffffffffffffffffffffffffffffffffffffff16826040516109b290612675565b60006040518083038185875af1925050503d80600081146109ef576040519150601f19603f3d011682016040523d82523d6000602084013e6109f4565b606091505b5050905080610a38576040517f08c379a0000000000000000000000000000000000000000000000000000000008152600401610a2f906127d0565b60405180910390fd5b505050565b610a5883838360405180602001604052806000815250610cbc565b505050565b6000806003600084815260200190815260200160002060009054906101000a900473ffffffffffffffffffffffffffffffffffffffff169050600073ffffffffffffffffffffffffffffffffffffffff168173ffffffffffffffffffffffffffffffffffffffff161415610b06576040517f08c379a0000000000000000000000000000000000000000000000000000000008152600401610afd906128f0565b60405180910390fd5b80915050919050565b60008073ffffffffffffffffffffffffffffffffffffffff168273ffffffffffffffffffffffffffffffffffffffff161415610b80576040517f08c379a0000000000000000000000000000000000000000000000000000000008152600401610b7790612850565b60405180910390fd5b600460008373ffffffffffffffffffffffffffffffffffffffff1673ffffffffffffffffffffffffffffffffffffffff168152602001908152602001600020549050919050565b610bcf61143c565b610bd960006114ba565b565b60008060009054906101000a900473ffffffffffffffffffffffffffffffffffffffff16905090565b606060028054610c1390612bea565b80601f0160208091040260200160405190810160405280929190818152602001828054610c3f90612bea565b8015610c8c5780601f10610c6157610100808354040283529160200191610c8c565b820191906000526020600020905b815481529060010190602001808311610c6f57829003601f168201915b5050505050905090565b6000600854905090565b60095481565b610cb8610cb161107f565b838361157e565b5050565b610ccd610cc761107f565b83611140565b610d0c576040517f08c379a0000000000000000000000000000000000000000000000000000000008152600401610d0390612930565b60405180910390fd5b610d18848484846116eb565b50505050565b6060610d2982611034565b6000600760008481526020019081526020016000208054610d4990612bea565b80601f0160208091040260200160405190810160405280929190818152602001828054610d7590612bea565b8015610dc25780601f10610d9757610100808354040283529160200191610dc2565b820191906000526020600020905b815481529060010190602001808311610da557829003601f168201915b505050505090506000610dd3611747565b9050600081511415610de9578192505050610e2c565b600082511115610e1e578082604051602001610e06929190612651565b60405160208183030381529060405292505050610e2c565b610e278461175e565b925050505b919050565b6000600854341015610e78576040517f08c379a0000000000000000000000000000000000000000000000000000000008152600401610e6f90612830565b60405180910390fd5b60096000815480929190610e8b90612c4d565b9190505550610e9c336009546117c6565b610ea8600954836117e4565b6009549050919050565b6000600660008473ffffffffffffffffffffffffffffffffffffffff1673ffffffffffffffffffffffffffffffffffffffff16815260200190815260200160002060008373ffffffffffffffffffffffffffffffffffffffff1673ffffffffffffffffffffffffffffffffffffffff16815260200190815260200160002060009054906101000a900460ff16905092915050565b610f4e61143c565b600073ffffffffffffffffffffffffffffffffffffffff168173ffffffffffffffffffffffffffffffffffffffff161415610fbe576040517f08c379a0000000000000000000000000000000000000000000000000000000008152600401610fb590612770565b60405180910390fd5b610fc7816114ba565b50565b60007f01ffc9a7000000000000000000000000000000000000000000000000000000007bffffffffffffffffffffffffffffffffffffffffffffffffffffffff1916827bffffffffffffffffffffffffffffffffffffffffffffffffffffffff1916149050919050565b61103d81611858565b61107c576040517f08c379a0000000000000000000000000000000000000000000000000000000008152600401611073906128f0565b60405180910390fd5b50565b600033905090565b816005600083815260200190815260200160002060006101000a81548173ffffffffffffffffffffffffffffffffffffffff021916908373ffffffffffffffffffffffffffffffffffffffff160217905550808273ffffffffffffffffffffffffffffffffffffffff166110fa83610a5d565b73ffffffffffffffffffffffffffffffffffffffff167f8c5be1e5ebec7d5bd14f71427d1e84f3dd0314c0f7b2291e5b200ac8c7c3b92560405160405180910390a45050565b60008061114c83610a5d565b90508073ffffffffffffffffffffffffffffffffffffffff168473ffffffffffffffffffffffffffffffffffffffff16148061118e575061118d8185610eb2565b5b806111cc57508373ffffffffffffffffffffffffffffffffffffffff166111b4846107bd565b73ffffffffffffffffffffffffffffffffffffffff16145b91505092915050565b8273ffffffffffffffffffffffffffffffffffffffff166111f582610a5d565b73ffffffffffffffffffffffffffffffffffffffff161461124b576040517f08c379a000000000000000000000000000000000000000000000000000000000815260040161124290612790565b60405180910390fd5b600073ffffffffffffffffffffffffffffffffffffffff168273ffffffffffffffffffffffffffffffffffffffff1614156112bb576040517f08c379a00000000000000000000000000000000000000000000000000000000081526004016112b2906127f0565b60405180910390fd5b6112c68383836118c4565b6112d1600082611087565b6001600460008573ffffffffffffffffffffffffffffffffffffffff1673ffffffffffffffffffffffffffffffffffffffff16815260200190815260200160002060008282546113219190612b00565b925050819055506001600460008473ffffffffffffffffffffffffffffffffffffffff1673ffffffffffffffffffffffffffffffffffffffff16815260200190815260200160002060008282546113789190612a79565b92505081905550816003600083815260200190815260200160002060006101000a81548173ffffffffffffffffffffffffffffffffffffffff021916908373ffffffffffffffffffffffffffffffffffffffff160217905550808273ffffffffffffffffffffffffffffffffffffffff168473ffffffffffffffffffffffffffffffffffffffff167fddf252ad1be2c89b69c2b068fc378daa952ba7f163c4a11628f55a4df523b3ef60405160405180910390a46114378383836118c9565b505050565b61144461107f565b73ffffffffffffffffffffffffffffffffffffffff16611462610bdb565b73ffffffffffffffffffffffffffffffffffffffff16146114b8576040517f08c379a00000000000000000000000000000000000000000000000000000000081526004016114af906128d0565b60405180910390fd5b565b60008060009054906101000a900473ffffffffffffffffffffffffffffffffffffffff169050816000806101000a81548173ffffffffffffffffffffffffffffffffffffffff021916908373ffffffffffffffffffffffffffffffffffffffff1602179055508173ffffffffffffffffffffffffffffffffffffffff168173ffffffffffffffffffffffffffffffffffffffff167f8be0079c531659141344cd1fd0a4f28419497f9722a3daafe3b4186f6b6457e060405160405180910390a35050565b8173ffffffffffffffffffffffffffffffffffffffff168373ffffffffffffffffffffffffffffffffffffffff1614156115ed576040517f08c379a00000000000000000000000000000000000000000000000000000000081526004016115e490612810565b60405180910390fd5b80600660008573ffffffffffffffffffffffffffffffffffffffff1673ffffffffffffffffffffffffffffffffffffffff16815260200190815260200160002060008473ffffffffffffffffffffffffffffffffffffffff1673ffffffffffffffffffffffffffffffffffffffff16815260200190815260200160002060006101000a81548160ff0219169083151502179055508173ffffffffffffffffffffffffffffffffffffffff168373ffffffffffffffffffffffffffffffffffffffff167f17307eab39ab6107e8899845ad3d59bd9653f200f220920489ca2b5937696c31836040516116de9190612713565b60405180910390a3505050565b6116f68484846111d5565b611702848484846118ce565b611741576040517f08c379a000000000000000000000000000000000000000000000000000000000815260040161173890612750565b60405180910390fd5b50505050565b606060405180602001604052806000815250905090565b606061176982611034565b6000611773611747565b9050600081511161179357604051806020016040528060008152506117be565b8061179d84611a65565b6040516020016117ae929190612651565b6040516020818303038152906040525b915050919050565b6117e0828260405180602001604052806000815250611c12565b5050565b6117ed82611858565b61182c576040517f08c379a000000000000000000000000000000000000000000000000000000000815260040161182390612870565b60405180910390fd5b80600760008481526020019081526020016000209080519060200190611853929190611e6a565b505050565b60008073ffffffffffffffffffffffffffffffffffffffff166003600084815260200190815260200160002060009054906101000a900473ffffffffffffffffffffffffffffffffffffffff1673ffffffffffffffffffffffffffffffffffffffff1614159050919050565b505050565b505050565b60006118ef8473ffffffffffffffffffffffffffffffffffffffff16611c6d565b15611a58578373ffffffffffffffffffffffffffffffffffffffff1663150b7a0261191861107f565b8786866040518563ffffffff1660e01b815260040161193a94939291906126a5565b602060405180830381600087803b15801561195457600080fd5b505af192505050801561198557506040513d601f19601f820116820180604052508101906119829190612216565b60015b611a08573d80600081146119b5576040519150601f19603f3d011682016040523d82523d6000602084013e6119ba565b606091505b50600081511415611a00576040517f08c379a00000000000000000000000000000000000000000000000000000000081526004016119f790612750565b60405180910390fd5b805181602001fd5b63150b7a0260e01b7bffffffffffffffffffffffffffffffffffffffffffffffffffffffff1916817bffffffffffffffffffffffffffffffffffffffffffffffffffffffff191614915050611a5d565b600190505b949350505050565b60606000821415611aad576040518060400160405280600181526020017f30000000000000000000000000000000000000000000000000000000000000008152509050611c0d565b600082905060005b60008214611adf578080611ac890612c4d565b915050600a82611ad89190612acf565b9150611ab5565b60008167ffffffffffffffff811115611b21577f4e487b7100000000000000000000000000000000000000000000000000000000600052604160045260246000fd5b6040519080825280601f01601f191660200182016040528015611b535781602001600182028036833780820191505090505b5090505b60008514611c0657600182611b6c9190612b00565b9150600a85611b7b9190612c96565b6030611b879190612a79565b60f81b818381518110611bc3577f4e487b7100000000000000000000000000000000000000000000000000000000600052603260045260246000fd5b60200101907effffffffffffffffffffffffffffffffffffffffffffffffffffffffffffff1916908160001a905350600a85611bff9190612acf565b9450611b57565b8093505050505b919050565b611c1c8383611c90565b611c2960008484846118ce565b611c68576040517f08c379a0000000000000000000000000000000000000000000000000000000008152600401611c5f90612750565b60405180910390fd5b505050565b6000808273ffffffffffffffffffffffffffffffffffffffff163b119050919050565b600073ffffffffffffffffffffffffffffffffffffffff168273ffffffffffffffffffffffffffffffffffffffff161415611d00576040517f08c379a0000000000000000000000000000000000000000000000000000000008152600401611cf7906128b0565b60405180910390fd5b611d0981611858565b15611d49576040517f08c379a0000000000000000000000000000000000000000000000000000000008152600401611d40906127b0565b60405180910390fd5b611d55600083836118c4565b6001600460008473ffffffffffffffffffffffffffffffffffffffff1673ffffffffffffffffffffffffffffffffffffffff1681526020019081526020016000206000828254611da59190612a79565b92505081905550816003600083815260200190815260200160002060006101000a81548173ffffffffffffffffffffffffffffffffffffffff021916908373ffffffffffffffffffffffffffffffffffffffff160217905550808273ffffffffffffffffffffffffffffffffffffffff16600073ffffffffffffffffffffffffffffffffffffffff167fddf252ad1be2c89b69c2b068fc378daa952ba7f163c4a11628f55a4df523b3ef60405160405180910390a4611e66600083836118c9565b5050565b828054611e7690612bea565b90600052602060002090601f016020900481019282611e985760008555611edf565b82601f10611eb157805160ff1916838001178555611edf565b82800160010185558215611edf579182015b82811115611ede578251825591602001919060010190611ec3565b5b509050611eec9190611ef0565b5090565b5b80821115611f09576000816000905550600101611ef1565b5090565b6000611f20611f1b84612990565b61296b565b905082815260208101848484011115611f3857600080fd5b611f43848285612ba8565b509392505050565b6000611f5e611f59846129c1565b61296b565b905082815260208101848484011115611f7657600080fd5b611f81848285612ba8565b509392505050565b600081359050611f98816131a3565b92915050565b600081359050611fad816131ba565b92915050565b600081359050611fc2816131d1565b92915050565b600081519050611fd7816131d1565b92915050565b600082601f830112611fee57600080fd5b8135611ffe848260208601611f0d565b91505092915050565b600082601f83011261201857600080fd5b8135612028848260208601611f4b565b91505092915050565b600081359050612040816131e8565b92915050565b60006020828403121561205857600080fd5b600061206684828501611f89565b91505092915050565b6000806040838503121561208257600080fd5b600061209085828601611f89565b92505060206120a185828601611f89565b9150509250929050565b6000806000606084860312156120c057600080fd5b60006120ce86828701611f89565b93505060206120df86828701611f89565b92505060406120f086828701612031565b9150509250925092565b6000806000806080858703121561211057600080fd5b600061211e87828801611f89565b945050602061212f87828801611f89565b935050604061214087828801612031565b925050606085013567ffffffffffffffff81111561215d57600080fd5b61216987828801611fdd565b91505092959194509250565b6000806040838503121561218857600080fd5b600061219685828601611f89565b92505060206121a785828601611f9e565b9150509250929050565b600080604083850312156121c457600080fd5b60006121d285828601611f89565b92505060206121e385828601612031565b9150509250929050565b6000602082840312156121ff57600080fd5b600061220d84828501611fb3565b91505092915050565b60006020828403121561222857600080fd5b600061223684828501611fc8565b91505092915050565b60006020828403121561225157600080fd5b600082013567ffffffffffffffff81111561226b57600080fd5b61227784828501612007565b91505092915050565b60006020828403121561229257600080fd5b60006122a084828501612031565b91505092915050565b60006122b58383612633565b60208301905092915050565b6122ca81612b34565b82525050565b60006122db82612a02565b6122e58185612a30565b93506122f0836129f2565b8060005b8381101561232157815161230888826122a9565b975061231383612a23565b9250506001810190506122f4565b5085935050505092915050565b61233781612b46565b82525050565b600061234882612a0d565b6123528185612a41565b9350612362818560208601612bb7565b61236b81612d83565b840191505092915050565b600061238182612a18565b61238b8185612a5d565b935061239b818560208601612bb7565b6123a481612d83565b840191505092915050565b60006123ba82612a18565b6123c48185612a6e565b93506123d4818560208601612bb7565b80840191505092915050565b60006123ed603283612a5d565b91506123f882612d94565b604082019050919050565b6000612410602683612a5d565b915061241b82612de3565b604082019050919050565b6000612433602583612a5d565b915061243e82612e32565b604082019050919050565b6000612456601c83612a5d565b915061246182612e81565b602082019050919050565b6000612479601483612a5d565b915061248482612eaa565b602082019050919050565b600061249c602483612a5d565b91506124a782612ed3565b604082019050919050565b60006124bf601983612a5d565b91506124ca82612f22565b602082019050919050565b60006124e2602483612a5d565b91506124ed82612f4b565b604082019050919050565b6000612505602983612a5d565b915061251082612f9a565b604082019050919050565b6000612528602e83612a5d565b915061253382612fe9565b604082019050919050565b600061254b603e83612a5d565b915061255682613038565b604082019050919050565b600061256e602083612a5d565b915061257982613087565b602082019050919050565b6000612591602083612a5d565b915061259c826130b0565b602082019050919050565b60006125b4601883612a5d565b91506125bf826130d9565b602082019050919050565b60006125d7602183612a5d565b91506125e282613102565b604082019050919050565b60006125fa600083612a52565b915061260582613151565b600082019050919050565b600061261d602e83612a5d565b915061262882613154565b604082019050919050565b61263c81612b9e565b82525050565b61264b81612b9e565b82525050565b600061265d82856123af565b915061266982846123af565b91508190509392505050565b6000612680826125ed565b9150819050919050565b600060208201905061269f60008301846122c1565b92915050565b60006080820190506126ba60008301876122c1565b6126c760208301866122c1565b6126d46040830185612642565b81810360608301526126e6818461233d565b905095945050505050565b6000602082019050818103600083015261270b81846122d0565b905092915050565b6000602082019050612728600083018461232e565b92915050565b600060208201905081810360008301526127488184612376565b905092915050565b60006020820190508181036000830152612769816123e0565b9050919050565b6000602082019050818103600083015261278981612403565b9050919050565b600060208201905081810360008301526127a981612426565b9050919050565b600060208201905081810360008301526127c981612449565b9050919050565b600060208201905081810360008301526127e98161246c565b9050919050565b600060208201905081810360008301526128098161248f565b9050919050565b60006020820190508181036000830152612829816124b2565b9050919050565b60006020820190508181036000830152612849816124d5565b9050919050565b60006020820190508181036000830152612869816124f8565b9050919050565b600060208201905081810360008301526128898161251b565b9050919050565b600060208201905081810360008301526128a98161253e565b9050919050565b600060208201905081810360008301526128c981612561565b9050919050565b600060208201905081810360008301526128e981612584565b9050919050565b60006020820190508181036000830152612909816125a7565b9050919050565b60006020820190508181036000830152612929816125ca565b9050919050565b6000602082019050818103600083015261294981612610565b9050919050565b60006020820190506129656000830184612642565b92915050565b6000612975612986565b90506129818282612c1c565b919050565b6000604051905090565b600067ffffffffffffffff8211156129ab576129aa612d54565b5b6129b482612d83565b9050602081019050919050565b600067ffffffffffffffff8211156129dc576129db612d54565b5b6129e582612d83565b9050602081019050919050565b6000819050602082019050919050565b600081519050919050565b600081519050919050565b600081519050919050565b6000602082019050919050565b600082825260208201905092915050565b600082825260208201905092915050565b600081905092915050565b600082825260208201905092915050565b600081905092915050565b6000612a8482612b9e565b9150612a8f83612b9e565b9250827fffffffffffffffffffffffffffffffffffffffffffffffffffffffffffffffff03821115612ac457612ac3612cc7565b5b828201905092915050565b6000612ada82612b9e565b9150612ae583612b9e565b925082612af557612af4612cf6565b5b828204905092915050565b6000612b0b82612b9e565b9150612b1683612b9e565b925082821015612b2957612b28612cc7565b5b828203905092915050565b6000612b3f82612b7e565b9050919050565b60008115159050919050565b60007fffffffff0000000000000000000000000000000000000000000000000000000082169050919050565b600073ffffffffffffffffffffffffffffffffffffffff82169050919050565b6000819050919050565b82818337600083830152505050565b60005b83811015612bd5578082015181840152602081019050612bba565b83811115612be4576000848401525b50505050565b60006002820490506001821680612c0257607f821691505b60208210811415612c1657612c15612d25565b5b50919050565b612c2582612d83565b810181811067ffffffffffffffff82111715612c4457612c43612d54565b5b80604052505050565b6000612c5882612b9e565b91507fffffffffffffffffffffffffffffffffffffffffffffffffffffffffffffffff821415612c8b57612c8a612cc7565b5b600182019050919050565b6000612ca182612b9e565b9150612cac83612b9e565b925082612cbc57612cbb612cf6565b5b828206905092915050565b7f4e487b7100000000000000000000000000000000000000000000000000000000600052601160045260246000fd5b7f4e487b7100000000000000000000000000000000000000000000000000000000600052601260045260246000fd5b7f4e487b7100000000000000000000000000000000000000000000000000000000600052602260045260246000fd5b7f4e487b7100000000000000000000000000000000000000000000000000000000600052604160045260246000fd5b6000601f19601f8301169050919050565b7f4552433732313a207472616e7366657220746f206e6f6e20455243373231526560008201527f63656976657220696d706c656d656e7465720000000000000000000000000000602082015250565b7f4f776e61626c653a206e6577206f776e657220697320746865207a65726f206160008201527f6464726573730000000000000000000000000000000000000000000000000000602082015250565b7f4552433732313a207472616e736665722066726f6d20696e636f72726563742060008201527f6f776e6572000000000000000000000000000000000000000000000000000000602082015250565b7f4552433732313a20746f6b656e20616c7265616479206d696e74656400000000600082015250565b7f4661696c656420746f2073656e64204574686572000000000000000000000000600082015250565b7f4552433732313a207472616e7366657220746f20746865207a65726f2061646460008201527f7265737300000000000000000000000000000000000000000000000000000000602082015250565b7f4552433732313a20617070726f766520746f2063616c6c657200000000000000600082015250565b7f4e6f20746520616c63616e7a6120706170612c206d696e696d6f20657320302e60008201527f3030303300000000000000000000000000000000000000000000000000000000602082015250565b7f4552433732313a2061646472657373207a65726f206973206e6f74206120766160008201527f6c6964206f776e65720000000000000000000000000000000000000000000000602082015250565b7f45524337323155524953746f726167653a2055524920736574206f66206e6f6e60008201527f6578697374656e7420746f6b656e000000000000000000000000000000000000602082015250565b7f4552433732313a20617070726f76652063616c6c6572206973206e6f7420746f60008201527f6b656e206f776e6572206e6f7220617070726f76656420666f7220616c6c0000602082015250565b7f4552433732313a206d696e7420746f20746865207a65726f2061646472657373600082015250565b7f4f776e61626c653a2063616c6c6572206973206e6f7420746865206f776e6572600082015250565b7f4552433732313a20696e76616c696420746f6b656e2049440000000000000000600082015250565b7f4552433732313a20617070726f76616c20746f2063757272656e74206f776e6560008201527f7200000000000000000000000000000000000000000000000000000000000000602082015250565b50565b7f4552433732313a2063616c6c6572206973206e6f7420746f6b656e206f776e6560008201527f72206e6f7220617070726f766564000000000000000000000000000000000000602082015250565b6131ac81612b34565b81146131b757600080fd5b50565b6131c381612b46565b81146131ce57600080fd5b50565b6131da81612b52565b81146131e557600080fd5b50565b6131f181612b9e565b81146131fc57600080fd5b5056fea2646970667358221220e556ea859bf32c6dad30f97b7eb2b0ca62c79b18e163bd135e209e760d03cfd664736f6c63430008040033",
  "linkReferences": {},
  "deployedLinkReferences": {}
}