{
  "_format": "hh-sol-artifact-1",
  "contractName": "SoldierNFT",
  "sourceName": "contracts/SoldierNFT.sol",
  "abi": [
    {
      "inputs": [],
      "stateMutability": "nonpayable",
      "type": "constructor"
    },
    {
      "anonymous": false,
      "inputs": [
        {
          "indexed": true,
          "internalType": "address",
          "name": "owner",
          "type": "address"
        },
        {
          "indexed": true,
          "internalType": "address",
          "name": "approved",
          "type": "address"
        },
        {
          "indexed": true,
          "internalType": "uint256",
          "name": "tokenId",
          "type": "uint256"
        }
      ],
      "name": "Approval",
      "type": "event"
    },
    {
      "anonymous": false,
      "inputs": [
        {
          "indexed": true,
          "internalType": "address",
          "name": "owner",
          "type": "address"
        },
        {
          "indexed": true,
          "internalType": "address",
          "name": "operator",
          "type": "address"
        },
        {
          "indexed": false,
          "internalType": "bool",
          "name": "approved",
          "type": "bool"
        }
      ],
      "name": "ApprovalForAll",
      "type": "event"
    },
    {
      "anonymous": false,
      "inputs": [
        {
          "indexed": true,
          "internalType": "address",
          "name": "previousOwner",
          "type": "address"
        },
        {
          "indexed": true,
          "internalType": "address",
          "name": "newOwner",
          "type": "address"
        }
      ],
      "name": "OwnershipTransferred",
      "type": "event"
    },
    {
      "anonymous": false,
      "inputs": [
        {
          "indexed": true,
          "internalType": "address",
          "name": "from",
          "type": "address"
        },
        {
          "indexed": true,
          "internalType": "address",
          "name": "to",
          "type": "address"
        },
        {
          "indexed": true,
          "internalType": "uint256",
          "name": "tokenId",
          "type": "uint256"
        }
      ],
      "name": "Transfer",
      "type": "event"
    },
    {
      "stateMutability": "payable",
      "type": "fallback"
    },
    {
      "inputs": [],
      "name": "amountOfTokensInAddress",
      "outputs": [
        {
          "internalType": "uint256",
          "name": "",
          "type": "uint256"
        }
      ],
      "stateMutability": "view",
      "type": "function"
    },
    {
      "inputs": [
        {
          "internalType": "address",
          "name": "to",
          "type": "address"
        },
        {
          "internalType": "uint256",
          "name": "tokenId",
          "type": "uint256"
        }
      ],
      "name": "approve",
      "outputs": [],
      "stateMutability": "nonpayable",
      "type": "function"
    },
    {
      "inputs": [
        {
          "internalType": "address",
          "name": "owner",
          "type": "address"
        }
      ],
      "name": "balanceOf",
      "outputs": [
        {
          "internalType": "uint256",
          "name": "",
          "type": "uint256"
        }
      ],
      "stateMutability": "view",
      "type": "function"
    },
    {
      "inputs": [
        {
          "internalType": "uint256",
          "name": "tokenId",
          "type": "uint256"
        }
      ],
      "name": "getApproved",
      "outputs": [
        {
          "internalType": "address",
          "name": "",
          "type": "address"
        }
      ],
      "stateMutability": "view",
      "type": "function"
    },
    {
      "inputs": [
        {
          "internalType": "address",
          "name": "owner",
          "type": "address"
        },
        {
          "internalType": "address",
          "name": "operator",
          "type": "address"
        }
      ],
      "name": "isApprovedForAll",
      "outputs": [
        {
          "internalType": "bool",
          "name": "",
          "type": "bool"
        }
      ],
      "stateMutability": "view",
      "type": "function"
    },
    {
      "inputs": [
        {
          "internalType": "string",
          "name": "_tokenURI",
          "type": "string"
        }
      ],
      "name": "mint",
      "outputs": [],
      "stateMutability": "nonpayable",
      "type": "function"
    },
    {
      "inputs": [],
      "name": "name",
      "outputs": [
        {
          "internalType": "string",
          "name": "",
          "type": "string"
        }
      ],
      "stateMutability": "view",
      "type": "function"
    },
    {
      "inputs": [],
      "name": "owner",
      "outputs": [
        {
          "internalType": "address",
          "name": "",
          "type": "address"
        }
      ],
      "stateMutability": "view",
      "type": "function"
    },
    {
      "inputs": [
        {
          "internalType": "uint256",
          "name": "tokenId",
          "type": "uint256"
        }
      ],
      "name": "ownerOf",
      "outputs": [
        {
          "internalType": "address",
          "name": "",
          "type": "address"
        }
      ],
      "stateMutability": "view",
      "type": "function"
    },
    {
      "inputs": [],
      "name": "renounceOwnership",
      "outputs": [],
      "stateMutability": "nonpayable",
      "type": "function"
    },
    {
      "inputs": [
        {
          "internalType": "address",
          "name": "from",
          "type": "address"
        },
        {
          "internalType": "address",
          "name": "to",
          "type": "address"
        },
        {
          "internalType": "uint256",
          "name": "tokenId",
          "type": "uint256"
        }
      ],
      "name": "safeTransferFrom",
      "outputs": [],
      "stateMutability": "nonpayable",
      "type": "function"
    },
    {
      "inputs": [
        {
          "internalType": "address",
          "name": "from",
          "type": "address"
        },
        {
          "internalType": "address",
          "name": "to",
          "type": "address"
        },
        {
          "internalType": "uint256",
          "name": "tokenId",
          "type": "uint256"
        },
        {
          "internalType": "bytes",
          "name": "data",
          "type": "bytes"
        }
      ],
      "name": "safeTransferFrom",
      "outputs": [],
      "stateMutability": "nonpayable",
      "type": "function"
    },
    {
      "inputs": [
        {
          "internalType": "address",
          "name": "operator",
          "type": "address"
        },
        {
          "internalType": "bool",
          "name": "approved",
          "type": "bool"
        }
      ],
      "name": "setApprovalForAll",
      "outputs": [],
      "stateMutability": "nonpayable",
      "type": "function"
    },
    {
      "inputs": [
        {
          "internalType": "bytes4",
          "name": "interfaceId",
          "type": "bytes4"
        }
      ],
      "name": "supportsInterface",
      "outputs": [
        {
          "internalType": "bool",
          "name": "",
          "type": "bool"
        }
      ],
      "stateMutability": "view",
      "type": "function"
    },
    {
      "inputs": [],
      "name": "symbol",
      "outputs": [
        {
          "internalType": "string",
          "name": "",
          "type": "string"
        }
      ],
      "stateMutability": "view",
      "type": "function"
    },
    {
      "inputs": [],
      "name": "tokenCount",
      "outputs": [
        {
          "internalType": "uint256",
          "name": "",
          "type": "uint256"
        }
      ],
      "stateMutability": "view",
      "type": "function"
    },
    {
      "inputs": [
        {
          "internalType": "uint256",
          "name": "tokenId",
          "type": "uint256"
        }
      ],
      "name": "tokenURI",
      "outputs": [
        {
          "internalType": "string",
          "name": "",
          "type": "string"
        }
      ],
      "stateMutability": "view",
      "type": "function"
    },
    {
      "inputs": [
        {
          "internalType": "address",
          "name": "from",
          "type": "address"
        },
        {
          "internalType": "address",
          "name": "to",
          "type": "address"
        },
        {
          "internalType": "uint256",
          "name": "tokenId",
          "type": "uint256"
        }
      ],
      "name": "transferFrom",
      "outputs": [],
      "stateMutability": "nonpayable",
      "type": "function"
    },
    {
      "inputs": [
        {
          "internalType": "address",
          "name": "newOwner",
          "type": "address"
        }
      ],
      "name": "transferOwnership",
      "outputs": [],
      "stateMutability": "nonpayable",
      "type": "function"
    },
    {
      "inputs": [],
      "name": "withdraw",
      "outputs": [],
      "stateMutability": "nonpayable",
      "type": "function"
    },
    {
      "stateMutability": "payable",
      "type": "receive"
    }
  ],
  "bytecode": "0x60806040523480156200001157600080fd5b506040518060400160405280600781526020017f536f6c64696572000000000000000000000000000000000000000000000000008152506040518060400160405280600381526020017f534c440000000000000000000000000000000000000000000000000000000000815250816000908051906020019062000096929190620001b3565b508060019080519060200190620000af929190620001b3565b505050620000d2620000c6620000e560201b60201c565b620000ed60201b60201c565b655af3107a4000600781905550620002c8565b600033905090565b6000600660009054906101000a900473ffffffffffffffffffffffffffffffffffffffff16905081600660006101000a81548173ffffffffffffffffffffffffffffffffffffffff021916908373ffffffffffffffffffffffffffffffffffffffff1602179055508173ffffffffffffffffffffffffffffffffffffffff168173ffffffffffffffffffffffffffffffffffffffff167f8be0079c531659141344cd1fd0a4f28419497f9722a3daafe3b4186f6b6457e060405160405180910390a35050565b828054620001c19062000263565b90600052602060002090601f016020900481019282620001e5576000855562000231565b82601f106200020057805160ff191683800117855562000231565b8280016001018555821562000231579182015b828111156200023057825182559160200191906001019062000213565b5b50905062000240919062000244565b5090565b5b808211156200025f57600081600090555060010162000245565b5090565b600060028204905060018216806200027c57607f821691505b6020821081141562000293576200029262000299565b5b50919050565b7f4e487b7100000000000000000000000000000000000000000000000000000000600052602260045260246000fd5b61292680620002d86000396000f3fe6080604052600436106101235760003560e01c8063715018a6116100a0578063b88d4fde11610064578063b88d4fde146103c9578063c87b56dd146103f2578063d85d3d271461042f578063e985e9c514610458578063f2fde38b146104955761012a565b8063715018a6146103085780638da5cb5b1461031f57806395d89b411461034a5780639f181b5e14610375578063a22cb465146103a05761012a565b806335809af4116100e757806335809af4146102235780633ccfd60b1461024e57806342842e0e146102655780636352211e1461028e57806370a08231146102cb5761012a565b806301ffc9a71461012c57806306fdde0314610169578063081812fc14610194578063095ea7b3146101d157806323b872dd146101fa5761012a565b3661012a57005b005b34801561013857600080fd5b50610153600480360381019061014e9190611c88565b6104be565b6040516101609190612049565b60405180910390f35b34801561017557600080fd5b5061017e6105a0565b60405161018b9190612064565b60405180910390f35b3480156101a057600080fd5b506101bb60048036038101906101b69190611d1b565b610632565b6040516101c89190611fe2565b60405180910390f35b3480156101dd57600080fd5b506101f860048036038101906101f39190611c4c565b610678565b005b34801561020657600080fd5b50610221600480360381019061021c9190611b46565b610790565b005b34801561022f57600080fd5b506102386107f0565b6040516102459190612226565b60405180910390f35b34801561025a57600080fd5b50610263610837565b005b34801561027157600080fd5b5061028c60048036038101906102879190611b46565b6108f9565b005b34801561029a57600080fd5b506102b560048036038101906102b09190611d1b565b610919565b6040516102c29190611fe2565b60405180910390f35b3480156102d757600080fd5b506102f260048036038101906102ed9190611ae1565b6109cb565b6040516102ff9190612226565b60405180910390f35b34801561031457600080fd5b5061031d610a83565b005b34801561032b57600080fd5b50610334610a97565b6040516103419190611fe2565b60405180910390f35b34801561035657600080fd5b5061035f610ac1565b60405161036c9190612064565b60405180910390f35b34801561038157600080fd5b5061038a610b53565b6040516103979190612226565b60405180910390f35b3480156103ac57600080fd5b506103c760048036038101906103c29190611c10565b610b59565b005b3480156103d557600080fd5b506103f060048036038101906103eb9190611b95565b610b6f565b005b3480156103fe57600080fd5b5061041960048036038101906104149190611d1b565b610bd1565b6040516104269190612064565b60405180910390f35b34801561043b57600080fd5b5061045660048036038101906104519190611cda565b610cee565b005b34801561046457600080fd5b5061047f600480360381019061047a9190611b0a565b610e3e565b60405161048c9190612049565b60405180910390f35b3480156104a157600080fd5b506104bc60048036038101906104b79190611ae1565b610ed2565b005b60007f80ac58cd000000000000000000000000000000000000000000000000000000007bffffffffffffffffffffffffffffffffffffffffffffffffffffffff1916827bffffffffffffffffffffffffffffffffffffffffffffffffffffffff1916148061058957507f5b5e139f000000000000000000000000000000000000000000000000000000007bffffffffffffffffffffffffffffffffffffffffffffffffffffffff1916827bffffffffffffffffffffffffffffffffffffffffffffffffffffffff1916145b80610599575061059882610f56565b5b9050919050565b6060600080546105af9061244b565b80601f01602080910402602001604051908101604052809291908181526020018280546105db9061244b565b80156106285780601f106105fd57610100808354040283529160200191610628565b820191906000526020600020905b81548152906001019060200180831161060b57829003601f168201915b5050505050905090565b600061063d82610fc0565b6004600083815260200190815260200160002060009054906101000a900473ffffffffffffffffffffffffffffffffffffffff169050919050565b600061068382610919565b90508073ffffffffffffffffffffffffffffffffffffffff168373ffffffffffffffffffffffffffffffffffffffff1614156106f4576040517f08c379a00000000000000000000000000000000000000000000000000000000081526004016106eb906121e6565b60405180910390fd5b8073ffffffffffffffffffffffffffffffffffffffff1661071361100b565b73ffffffffffffffffffffffffffffffffffffffff16148061074257506107418161073c61100b565b610e3e565b5b610781576040517f08c379a000000000000000000000000000000000000000000000000000000000815260040161077890612186565b60405180910390fd5b61078b8383611013565b505050565b6107a161079b61100b565b826110cc565b6107e0576040517f08c379a00000000000000000000000000000000000000000000000000000000081526004016107d790612206565b60405180910390fd5b6107eb838383611161565b505050565b6000600a60003373ffffffffffffffffffffffffffffffffffffffff1673ffffffffffffffffffffffffffffffffffffffff16815260200190815260200160002054905090565b6000610841610a97565b9050600047905060008273ffffffffffffffffffffffffffffffffffffffff168260405161086e90611fcd565b60006040518083038185875af1925050503d80600081146108ab576040519150601f19603f3d011682016040523d82523d6000602084013e6108b0565b606091505b50509050806108f4576040517f08c379a00000000000000000000000000000000000000000000000000000000081526004016108eb90612106565b60405180910390fd5b505050565b61091483838360405180602001604052806000815250610b6f565b505050565b6000806002600084815260200190815260200160002060009054906101000a900473ffffffffffffffffffffffffffffffffffffffff169050600073ffffffffffffffffffffffffffffffffffffffff168173ffffffffffffffffffffffffffffffffffffffff1614156109c2576040517f08c379a00000000000000000000000000000000000000000000000000000000081526004016109b9906121c6565b60405180910390fd5b80915050919050565b60008073ffffffffffffffffffffffffffffffffffffffff168273ffffffffffffffffffffffffffffffffffffffff161415610a3c576040517f08c379a0000000000000000000000000000000000000000000000000000000008152600401610a3390612166565b60405180910390fd5b600360008373ffffffffffffffffffffffffffffffffffffffff1673ffffffffffffffffffffffffffffffffffffffff168152602001908152602001600020549050919050565b610a8b6113c8565b610a956000611446565b565b6000600660009054906101000a900473ffffffffffffffffffffffffffffffffffffffff16905090565b606060018054610ad09061244b565b80601f0160208091040260200160405190810160405280929190818152602001828054610afc9061244b565b8015610b495780601f10610b1e57610100808354040283529160200191610b49565b820191906000526020600020905b815481529060010190602001808311610b2c57829003601f168201915b5050505050905090565b60085481565b610b6b610b6461100b565b838361150c565b5050565b610b80610b7a61100b565b836110cc565b610bbf576040517f08c379a0000000000000000000000000000000000000000000000000000000008152600401610bb690612206565b60405180910390fd5b610bcb84848484611679565b50505050565b6060600073ffffffffffffffffffffffffffffffffffffffff16610bf483610919565b73ffffffffffffffffffffffffffffffffffffffff161415610c4b576040517f08c379a0000000000000000000000000000000000000000000000000000000008152600401610c4290612086565b60405180910390fd5b600960008381526020019081526020016000208054610c699061244b565b80601f0160208091040260200160405190810160405280929190818152602001828054610c959061244b565b8015610ce25780601f10610cb757610100808354040283529160200191610ce2565b820191906000526020600020905b815481529060010190602001808311610cc557829003601f168201915b50505050509050919050565b600160086000828254610d01919061230b565b925050819055506001600a60003373ffffffffffffffffffffffffffffffffffffffff1673ffffffffffffffffffffffffffffffffffffffff1681526020019081526020016000206000828254610d58919061230b565b9250508190555033600b6000600854815260200190815260200160002060006101000a81548173ffffffffffffffffffffffffffffffffffffffff021916908373ffffffffffffffffffffffffffffffffffffffff160217905550806009600060085481526020019081526020016000209080519060200190610ddc929190611905565b506008543373ffffffffffffffffffffffffffffffffffffffff16600073ffffffffffffffffffffffffffffffffffffffff167fddf252ad1be2c89b69c2b068fc378daa952ba7f163c4a11628f55a4df523b3ef60405160405180910390a450565b6000600560008473ffffffffffffffffffffffffffffffffffffffff1673ffffffffffffffffffffffffffffffffffffffff16815260200190815260200160002060008373ffffffffffffffffffffffffffffffffffffffff1673ffffffffffffffffffffffffffffffffffffffff16815260200190815260200160002060009054906101000a900460ff16905092915050565b610eda6113c8565b600073ffffffffffffffffffffffffffffffffffffffff168173ffffffffffffffffffffffffffffffffffffffff161415610f4a576040517f08c379a0000000000000000000000000000000000000000000000000000000008152600401610f41906120c6565b60405180910390fd5b610f5381611446565b50565b60007f01ffc9a7000000000000000000000000000000000000000000000000000000007bffffffffffffffffffffffffffffffffffffffffffffffffffffffff1916827bffffffffffffffffffffffffffffffffffffffffffffffffffffffff1916149050919050565b610fc9816116d5565b611008576040517f08c379a0000000000000000000000000000000000000000000000000000000008152600401610fff906121c6565b60405180910390fd5b50565b600033905090565b816004600083815260200190815260200160002060006101000a81548173ffffffffffffffffffffffffffffffffffffffff021916908373ffffffffffffffffffffffffffffffffffffffff160217905550808273ffffffffffffffffffffffffffffffffffffffff1661108683610919565b73ffffffffffffffffffffffffffffffffffffffff167f8c5be1e5ebec7d5bd14f71427d1e84f3dd0314c0f7b2291e5b200ac8c7c3b92560405160405180910390a45050565b6000806110d883610919565b90508073ffffffffffffffffffffffffffffffffffffffff168473ffffffffffffffffffffffffffffffffffffffff16148061111a57506111198185610e3e565b5b8061115857508373ffffffffffffffffffffffffffffffffffffffff1661114084610632565b73ffffffffffffffffffffffffffffffffffffffff16145b91505092915050565b8273ffffffffffffffffffffffffffffffffffffffff1661118182610919565b73ffffffffffffffffffffffffffffffffffffffff16146111d7576040517f08c379a00000000000000000000000000000000000000000000000000000000081526004016111ce906120e6565b60405180910390fd5b600073ffffffffffffffffffffffffffffffffffffffff168273ffffffffffffffffffffffffffffffffffffffff161415611247576040517f08c379a000000000000000000000000000000000000000000000000000000000815260040161123e90612126565b60405180910390fd5b611252838383611741565b61125d600082611013565b6001600360008573ffffffffffffffffffffffffffffffffffffffff1673ffffffffffffffffffffffffffffffffffffffff16815260200190815260200160002060008282546112ad9190612361565b925050819055506001600360008473ffffffffffffffffffffffffffffffffffffffff1673ffffffffffffffffffffffffffffffffffffffff1681526020019081526020016000206000828254611304919061230b565b92505081905550816002600083815260200190815260200160002060006101000a81548173ffffffffffffffffffffffffffffffffffffffff021916908373ffffffffffffffffffffffffffffffffffffffff160217905550808273ffffffffffffffffffffffffffffffffffffffff168473ffffffffffffffffffffffffffffffffffffffff167fddf252ad1be2c89b69c2b068fc378daa952ba7f163c4a11628f55a4df523b3ef60405160405180910390a46113c3838383611746565b505050565b6113d061100b565b73ffffffffffffffffffffffffffffffffffffffff166113ee610a97565b73ffffffffffffffffffffffffffffffffffffffff1614611444576040517f08c379a000000000000000000000000000000000000000000000000000000000815260040161143b906121a6565b60405180910390fd5b565b6000600660009054906101000a900473ffffffffffffffffffffffffffffffffffffffff16905081600660006101000a81548173ffffffffffffffffffffffffffffffffffffffff021916908373ffffffffffffffffffffffffffffffffffffffff1602179055508173ffffffffffffffffffffffffffffffffffffffff168173ffffffffffffffffffffffffffffffffffffffff167f8be0079c531659141344cd1fd0a4f28419497f9722a3daafe3b4186f6b6457e060405160405180910390a35050565b8173ffffffffffffffffffffffffffffffffffffffff168373ffffffffffffffffffffffffffffffffffffffff16141561157b576040517f08c379a000000000000000000000000000000000000000000000000000000000815260040161157290612146565b60405180910390fd5b80600560008573ffffffffffffffffffffffffffffffffffffffff1673ffffffffffffffffffffffffffffffffffffffff16815260200190815260200160002060008473ffffffffffffffffffffffffffffffffffffffff1673ffffffffffffffffffffffffffffffffffffffff16815260200190815260200160002060006101000a81548160ff0219169083151502179055508173ffffffffffffffffffffffffffffffffffffffff168373ffffffffffffffffffffffffffffffffffffffff167f17307eab39ab6107e8899845ad3d59bd9653f200f220920489ca2b5937696c318360405161166c9190612049565b60405180910390a3505050565b611684848484611161565b6116908484848461174b565b6116cf576040517f08c379a00000000000000000000000000000000000000000000000000000000081526004016116c6906120a6565b60405180910390fd5b50505050565b60008073ffffffffffffffffffffffffffffffffffffffff166002600084815260200190815260200160002060009054906101000a900473ffffffffffffffffffffffffffffffffffffffff1673ffffffffffffffffffffffffffffffffffffffff1614159050919050565b505050565b505050565b600061176c8473ffffffffffffffffffffffffffffffffffffffff166118e2565b156118d5578373ffffffffffffffffffffffffffffffffffffffff1663150b7a0261179561100b565b8786866040518563ffffffff1660e01b81526004016117b79493929190611ffd565b602060405180830381600087803b1580156117d157600080fd5b505af192505050801561180257506040513d601f19601f820116820180604052508101906117ff9190611cb1565b60015b611885573d8060008114611832576040519150601f19603f3d011682016040523d82523d6000602084013e611837565b606091505b5060008151141561187d576040517f08c379a0000000000000000000000000000000000000000000000000000000008152600401611874906120a6565b60405180910390fd5b805181602001fd5b63150b7a0260e01b7bffffffffffffffffffffffffffffffffffffffffffffffffffffffff1916817bffffffffffffffffffffffffffffffffffffffffffffffffffffffff1916149150506118da565b600190505b949350505050565b6000808273ffffffffffffffffffffffffffffffffffffffff163b119050919050565b8280546119119061244b565b90600052602060002090601f016020900481019282611933576000855561197a565b82601f1061194c57805160ff191683800117855561197a565b8280016001018555821561197a579182015b8281111561197957825182559160200191906001019061195e565b5b509050611987919061198b565b5090565b5b808211156119a457600081600090555060010161198c565b5090565b60006119bb6119b684612266565b612241565b9050828152602081018484840111156119d357600080fd5b6119de848285612409565b509392505050565b60006119f96119f484612297565b612241565b905082815260208101848484011115611a1157600080fd5b611a1c848285612409565b509392505050565b600081359050611a3381612894565b92915050565b600081359050611a48816128ab565b92915050565b600081359050611a5d816128c2565b92915050565b600081519050611a72816128c2565b92915050565b600082601f830112611a8957600080fd5b8135611a998482602086016119a8565b91505092915050565b600082601f830112611ab357600080fd5b8135611ac38482602086016119e6565b91505092915050565b600081359050611adb816128d9565b92915050565b600060208284031215611af357600080fd5b6000611b0184828501611a24565b91505092915050565b60008060408385031215611b1d57600080fd5b6000611b2b85828601611a24565b9250506020611b3c85828601611a24565b9150509250929050565b600080600060608486031215611b5b57600080fd5b6000611b6986828701611a24565b9350506020611b7a86828701611a24565b9250506040611b8b86828701611acc565b9150509250925092565b60008060008060808587031215611bab57600080fd5b6000611bb987828801611a24565b9450506020611bca87828801611a24565b9350506040611bdb87828801611acc565b925050606085013567ffffffffffffffff811115611bf857600080fd5b611c0487828801611a78565b91505092959194509250565b60008060408385031215611c2357600080fd5b6000611c3185828601611a24565b9250506020611c4285828601611a39565b9150509250929050565b60008060408385031215611c5f57600080fd5b6000611c6d85828601611a24565b9250506020611c7e85828601611acc565b9150509250929050565b600060208284031215611c9a57600080fd5b6000611ca884828501611a4e565b91505092915050565b600060208284031215611cc357600080fd5b6000611cd184828501611a63565b91505092915050565b600060208284031215611cec57600080fd5b600082013567ffffffffffffffff811115611d0657600080fd5b611d1284828501611aa2565b91505092915050565b600060208284031215611d2d57600080fd5b6000611d3b84828501611acc565b91505092915050565b611d4d81612395565b82525050565b611d5c816123a7565b82525050565b6000611d6d826122c8565b611d7781856122de565b9350611d87818560208601612418565b611d908161253b565b840191505092915050565b6000611da6826122d3565b611db081856122fa565b9350611dc0818560208601612418565b611dc98161253b565b840191505092915050565b6000611de16012836122fa565b9150611dec8261254c565b602082019050919050565b6000611e046032836122fa565b9150611e0f82612575565b604082019050919050565b6000611e276026836122fa565b9150611e32826125c4565b604082019050919050565b6000611e4a6025836122fa565b9150611e5582612613565b604082019050919050565b6000611e6d6014836122fa565b9150611e7882612662565b602082019050919050565b6000611e906024836122fa565b9150611e9b8261268b565b604082019050919050565b6000611eb36019836122fa565b9150611ebe826126da565b602082019050919050565b6000611ed66029836122fa565b9150611ee182612703565b604082019050919050565b6000611ef9603e836122fa565b9150611f0482612752565b604082019050919050565b6000611f1c6020836122fa565b9150611f27826127a1565b602082019050919050565b6000611f3f6018836122fa565b9150611f4a826127ca565b602082019050919050565b6000611f626021836122fa565b9150611f6d826127f3565b604082019050919050565b6000611f856000836122ef565b9150611f9082612842565b600082019050919050565b6000611fa8602e836122fa565b9150611fb382612845565b604082019050919050565b611fc7816123ff565b82525050565b6000611fd882611f78565b9150819050919050565b6000602082019050611ff76000830184611d44565b92915050565b60006080820190506120126000830187611d44565b61201f6020830186611d44565b61202c6040830185611fbe565b818103606083015261203e8184611d62565b905095945050505050565b600060208201905061205e6000830184611d53565b92915050565b6000602082019050818103600083015261207e8184611d9b565b905092915050565b6000602082019050818103600083015261209f81611dd4565b9050919050565b600060208201905081810360008301526120bf81611df7565b9050919050565b600060208201905081810360008301526120df81611e1a565b9050919050565b600060208201905081810360008301526120ff81611e3d565b9050919050565b6000602082019050818103600083015261211f81611e60565b9050919050565b6000602082019050818103600083015261213f81611e83565b9050919050565b6000602082019050818103600083015261215f81611ea6565b9050919050565b6000602082019050818103600083015261217f81611ec9565b9050919050565b6000602082019050818103600083015261219f81611eec565b9050919050565b600060208201905081810360008301526121bf81611f0f565b9050919050565b600060208201905081810360008301526121df81611f32565b9050919050565b600060208201905081810360008301526121ff81611f55565b9050919050565b6000602082019050818103600083015261221f81611f9b565b9050919050565b600060208201905061223b6000830184611fbe565b92915050565b600061224b61225c565b9050612257828261247d565b919050565b6000604051905090565b600067ffffffffffffffff8211156122815761228061250c565b5b61228a8261253b565b9050602081019050919050565b600067ffffffffffffffff8211156122b2576122b161250c565b5b6122bb8261253b565b9050602081019050919050565b600081519050919050565b600081519050919050565b600082825260208201905092915050565b600081905092915050565b600082825260208201905092915050565b6000612316826123ff565b9150612321836123ff565b9250827fffffffffffffffffffffffffffffffffffffffffffffffffffffffffffffffff03821115612356576123556124ae565b5b828201905092915050565b600061236c826123ff565b9150612377836123ff565b92508282101561238a576123896124ae565b5b828203905092915050565b60006123a0826123df565b9050919050565b60008115159050919050565b60007fffffffff0000000000000000000000000000000000000000000000000000000082169050919050565b600073ffffffffffffffffffffffffffffffffffffffff82169050919050565b6000819050919050565b82818337600083830152505050565b60005b8381101561243657808201518184015260208101905061241b565b83811115612445576000848401525b50505050565b6000600282049050600182168061246357607f821691505b60208210811415612477576124766124dd565b5b50919050565b6124868261253b565b810181811067ffffffffffffffff821117156124a5576124a461250c565b5b80604052505050565b7f4e487b7100000000000000000000000000000000000000000000000000000000600052601160045260246000fd5b7f4e487b7100000000000000000000000000000000000000000000000000000000600052602260045260246000fd5b7f4e487b7100000000000000000000000000000000000000000000000000000000600052604160045260246000fd5b6000601f19601f8301169050919050565b7f746f6b656e20646f65736e742065786973740000000000000000000000000000600082015250565b7f4552433732313a207472616e7366657220746f206e6f6e20455243373231526560008201527f63656976657220696d706c656d656e7465720000000000000000000000000000602082015250565b7f4f776e61626c653a206e6577206f776e657220697320746865207a65726f206160008201527f6464726573730000000000000000000000000000000000000000000000000000602082015250565b7f4552433732313a207472616e736665722066726f6d20696e636f72726563742060008201527f6f776e6572000000000000000000000000000000000000000000000000000000602082015250565b7f4661696c656420746f2073656e64204574686572000000000000000000000000600082015250565b7f4552433732313a207472616e7366657220746f20746865207a65726f2061646460008201527f7265737300000000000000000000000000000000000000000000000000000000602082015250565b7f4552433732313a20617070726f766520746f2063616c6c657200000000000000600082015250565b7f4552433732313a2061646472657373207a65726f206973206e6f74206120766160008201527f6c6964206f776e65720000000000000000000000000000000000000000000000602082015250565b7f4552433732313a20617070726f76652063616c6c6572206973206e6f7420746f60008201527f6b656e206f776e6572206e6f7220617070726f76656420666f7220616c6c0000602082015250565b7f4f776e61626c653a2063616c6c6572206973206e6f7420746865206f776e6572600082015250565b7f4552433732313a20696e76616c696420746f6b656e2049440000000000000000600082015250565b7f4552433732313a20617070726f76616c20746f2063757272656e74206f776e6560008201527f7200000000000000000000000000000000000000000000000000000000000000602082015250565b50565b7f4552433732313a2063616c6c6572206973206e6f7420746f6b656e206f776e6560008201527f72206e6f7220617070726f766564000000000000000000000000000000000000602082015250565b61289d81612395565b81146128a857600080fd5b50565b6128b4816123a7565b81146128bf57600080fd5b50565b6128cb816123b3565b81146128d657600080fd5b50565b6128e2816123ff565b81146128ed57600080fd5b5056fea26469706673582212205b912dcb2f455d128c30c006f5396a2bc93b9ee265a6923486709710f71eb4fa64736f6c63430008040033",
  "linkReferences": {},
  "deployedLinkReferences": {}
}